{
  "_format": "hh-sol-artifact-1",
  "contractName": "ComplianceRegistry",
  "sourceName": "contracts/ComplianceRegistry.sol",
  "abi": [
    {
      "inputs": [],
      "stateMutability": "nonpayable",
      "type": "constructor"
    },
    {
      "inputs": [],
      "name": "AccessControlBadConfirmation",
      "type": "error"
    },
    {
      "inputs": [
        {
          "internalType": "address",
          "name": "account",
          "type": "address"
        },
        {
          "internalType": "bytes32",
          "name": "neededRole",
          "type": "bytes32"
        }
      ],
      "name": "AccessControlUnauthorizedAccount",
      "type": "error"
    },
    {
      "inputs": [
        {
          "internalType": "address",
          "name": "target",
          "type": "address"
        }
      ],
      "name": "AddressEmptyCode",
      "type": "error"
    },
    {
      "inputs": [
        {
          "internalType": "address",
          "name": "implementation",
          "type": "address"
        }
      ],
      "name": "ERC1967InvalidImplementation",
      "type": "error"
    },
    {
      "inputs": [],
      "name": "ERC1967NonPayable",
      "type": "error"
    },
    {
      "inputs": [],
      "name": "FailedCall",
      "type": "error"
    },
    {
      "inputs": [],
      "name": "InvalidInitialization",
      "type": "error"
    },
    {
      "inputs": [],
      "name": "NotInitializing",
      "type": "error"
    },
    {
      "inputs": [],
      "name": "UUPSUnauthorizedCallContext",
      "type": "error"
    },
    {
      "inputs": [
        {
          "internalType": "bytes32",
          "name": "slot",
          "type": "bytes32"
        }
      ],
      "name": "UUPSUnsupportedProxiableUUID",
      "type": "error"
    },
    {
      "anonymous": false,
      "inputs": [
        {
          "indexed": true,
          "internalType": "address",
          "name": "account",
          "type": "address"
        }
      ],
      "name": "IdentityRevoked",
      "type": "event"
    },
    {
      "anonymous": false,
      "inputs": [
        {
          "indexed": true,
          "internalType": "address",
          "name": "account",
          "type": "address"
        },
        {
          "indexed": false,
          "internalType": "string",
          "name": "country",
          "type": "string"
        }
      ],
      "name": "IdentityVerified",
      "type": "event"
    },
    {
      "anonymous": false,
      "inputs": [
        {
          "indexed": false,
          "internalType": "uint64",
          "name": "version",
          "type": "uint64"
        }
      ],
      "name": "Initialized",
      "type": "event"
    },
    {
      "anonymous": false,
      "inputs": [
        {
          "indexed": true,
          "internalType": "bytes32",
          "name": "role",
          "type": "bytes32"
        },
        {
          "indexed": true,
          "internalType": "bytes32",
          "name": "previousAdminRole",
          "type": "bytes32"
        },
        {
          "indexed": true,
          "internalType": "bytes32",
          "name": "newAdminRole",
          "type": "bytes32"
        }
      ],
      "name": "RoleAdminChanged",
      "type": "event"
    },
    {
      "anonymous": false,
      "inputs": [
        {
          "indexed": true,
          "internalType": "bytes32",
          "name": "role",
          "type": "bytes32"
        },
        {
          "indexed": true,
          "internalType": "address",
          "name": "account",
          "type": "address"
        },
        {
          "indexed": true,
          "internalType": "address",
          "name": "sender",
          "type": "address"
        }
      ],
      "name": "RoleGranted",
      "type": "event"
    },
    {
      "anonymous": false,
      "inputs": [
        {
          "indexed": true,
          "internalType": "bytes32",
          "name": "role",
          "type": "bytes32"
        },
        {
          "indexed": true,
          "internalType": "address",
          "name": "account",
          "type": "address"
        },
        {
          "indexed": true,
          "internalType": "address",
          "name": "sender",
          "type": "address"
        }
      ],
      "name": "RoleRevoked",
      "type": "event"
    },
    {
      "anonymous": false,
      "inputs": [
        {
          "indexed": true,
          "internalType": "address",
          "name": "implementation",
          "type": "address"
        }
      ],
      "name": "Upgraded",
      "type": "event"
    },
    {
      "inputs": [],
      "name": "COMPLIANCE_ADMIN_ROLE",
      "outputs": [
        {
          "internalType": "bytes32",
          "name": "",
          "type": "bytes32"
        }
      ],
      "stateMutability": "view",
      "type": "function"
    },
    {
      "inputs": [],
      "name": "DEFAULT_ADMIN_ROLE",
      "outputs": [
        {
          "internalType": "bytes32",
          "name": "",
          "type": "bytes32"
        }
      ],
      "stateMutability": "view",
      "type": "function"
    },
    {
      "inputs": [],
      "name": "UPGRADER_ROLE",
      "outputs": [
        {
          "internalType": "bytes32",
          "name": "",
          "type": "bytes32"
        }
      ],
      "stateMutability": "view",
      "type": "function"
    },
    {
      "inputs": [],
      "name": "UPGRADE_INTERFACE_VERSION",
      "outputs": [
        {
          "internalType": "string",
          "name": "",
          "type": "string"
        }
      ],
      "stateMutability": "view",
      "type": "function"
    },
    {
      "inputs": [
        {
          "internalType": "address",
          "name": "_investor",
          "type": "address"
        }
      ],
      "name": "checkCompliance",
      "outputs": [
        {
          "internalType": "bool",
          "name": "",
          "type": "bool"
        }
      ],
      "stateMutability": "view",
      "type": "function"
    },
    {
      "inputs": [
        {
          "internalType": "bytes32",
          "name": "role",
          "type": "bytes32"
        }
      ],
      "name": "getRoleAdmin",
      "outputs": [
        {
          "internalType": "bytes32",
          "name": "",
          "type": "bytes32"
        }
      ],
      "stateMutability": "view",
      "type": "function"
    },
    {
      "inputs": [
        {
          "internalType": "bytes32",
          "name": "role",
          "type": "bytes32"
        },
        {
          "internalType": "address",
          "name": "account",
          "type": "address"
        }
      ],
      "name": "grantRole",
      "outputs": [],
      "stateMutability": "nonpayable",
      "type": "function"
    },
    {
      "inputs": [
        {
          "internalType": "bytes32",
          "name": "role",
          "type": "bytes32"
        },
        {
          "internalType": "address",
          "name": "account",
          "type": "address"
        }
      ],
      "name": "hasRole",
      "outputs": [
        {
          "internalType": "bool",
          "name": "",
          "type": "bool"
        }
      ],
      "stateMutability": "view",
      "type": "function"
    },
    {
      "inputs": [
        {
          "internalType": "address",
          "name": "defaultAdmin",
          "type": "address"
        }
      ],
      "name": "initialize",
      "outputs": [],
      "stateMutability": "nonpayable",
      "type": "function"
    },
    {
      "inputs": [
        {
          "internalType": "address",
          "name": "",
          "type": "address"
        }
      ],
      "name": "investorCountry",
      "outputs": [
        {
          "internalType": "string",
          "name": "",
          "type": "string"
        }
      ],
      "stateMutability": "view",
      "type": "function"
    },
    {
      "inputs": [
        {
          "internalType": "address",
          "name": "",
          "type": "address"
        }
      ],
      "name": "isVerified",
      "outputs": [
        {
          "internalType": "bool",
          "name": "",
          "type": "bool"
        }
      ],
      "stateMutability": "view",
      "type": "function"
    },
    {
      "inputs": [],
      "name": "proxiableUUID",
      "outputs": [
        {
          "internalType": "bytes32",
          "name": "",
          "type": "bytes32"
        }
      ],
      "stateMutability": "view",
      "type": "function"
    },
    {
      "inputs": [
        {
          "internalType": "bytes32",
          "name": "role",
          "type": "bytes32"
        },
        {
          "internalType": "address",
          "name": "callerConfirmation",
          "type": "address"
        }
      ],
      "name": "renounceRole",
      "outputs": [],
      "stateMutability": "nonpayable",
      "type": "function"
    },
    {
      "inputs": [
        {
          "internalType": "bytes32",
          "name": "role",
          "type": "bytes32"
        },
        {
          "internalType": "address",
          "name": "account",
          "type": "address"
        }
      ],
      "name": "revokeRole",
      "outputs": [],
      "stateMutability": "nonpayable",
      "type": "function"
    },
    {
      "inputs": [
        {
          "internalType": "bytes4",
          "name": "interfaceId",
          "type": "bytes4"
        }
      ],
      "name": "supportsInterface",
      "outputs": [
        {
          "internalType": "bool",
          "name": "",
          "type": "bool"
        }
      ],
      "stateMutability": "view",
      "type": "function"
    },
    {
      "inputs": [
        {
          "internalType": "address",
          "name": "_investor",
          "type": "address"
        },
        {
          "internalType": "bool",
          "name": "_status",
          "type": "bool"
        },
        {
          "internalType": "string",
          "name": "_country",
          "type": "string"
        }
      ],
      "name": "updateIdentity",
      "outputs": [],
      "stateMutability": "nonpayable",
      "type": "function"
    },
    {
      "inputs": [
        {
          "internalType": "address",
          "name": "newImplementation",
          "type": "address"
        },
        {
          "internalType": "bytes",
          "name": "data",
          "type": "bytes"
        }
      ],
      "name": "upgradeToAndCall",
      "outputs": [],
      "stateMutability": "payable",
      "type": "function"
    }
  ],
  "bytecode": "0x60a06040523060805234801561001457600080fd5b5061001d610022565b6100d4565b7ff0c57e16840df040f15088dc2f81fe391c3923bec73e23a9662efc9c229c6a00805468010000000000000000900460ff16156100725760405163f92ee8a960e01b815260040160405180910390fd5b80546001600160401b03908116146100d15780546001600160401b0319166001600160401b0390811782556040519081527fc7f505b2f371ae2175ee4913f4499e1f2633a7b5936321eed1cdaeb6115181d29060200160405180910390a15b50565b60805161121a6100fd6000396000818161092a015281816109530152610abd015261121a6000f3fe6080604052600436106100fe5760003560e01c80637e42683b11610095578063ad3cb1cc11610064578063ad3cb1cc146102bf578063b9209e33146102f0578063c4d66de814610320578063d547741f14610340578063f72c0d8b1461036057600080fd5b80637e42683b1461022957806391d1485414610256578063a11939bd14610276578063a217fddf146102aa57600080fd5b806336568abe116100d157806336568abe146101c15780633faa9dae146101e15780634f1ef2861461020157806352d1902d1461021457600080fd5b806301ffc9a714610103578063248a9ca3146101385780632c289dcf146101665780632f2ff15d1461019f575b600080fd5b34801561010f57600080fd5b5061012361011e366004610dc9565b610394565b60405190151581526020015b60405180910390f35b34801561014457600080fd5b50610158610153366004610df3565b6103cb565b60405190815260200161012f565b34801561017257600080fd5b50610123610181366004610e28565b6001600160a01b031660009081526020819052604090205460ff1690565b3480156101ab57600080fd5b506101bf6101ba366004610e43565b6103ed565b005b3480156101cd57600080fd5b506101bf6101dc366004610e43565b61040f565b3480156101ed57600080fd5b506101bf6101fc366004610efb565b610447565b6101bf61020f366004610f74565b610562565b34801561022057600080fd5b50610158610581565b34801561023557600080fd5b50610249610244366004610e28565b61059e565b60405161012f9190610ffa565b34801561026257600080fd5b50610123610271366004610e43565b610638565b34801561028257600080fd5b506101587f6390f5a69ff59edce8e461308dbd399b74f0414e629057022cbc92159a014c7681565b3480156102b657600080fd5b50610158600081565b3480156102cb57600080fd5b50610249604051806040016040528060058152602001640352e302e360dc1b81525081565b3480156102fc57600080fd5b5061012361030b366004610e28565b60006020819052908152604090205460ff1681565b34801561032c57600080fd5b506101bf61033b366004610e28565b610670565b34801561034c57600080fd5b506101bf61035b366004610e43565b6107d5565b34801561036c57600080fd5b506101587f189ab7a9244df0848122154315af71fe140f3db0fe014031783b0946b8c9d2e381565b60006001600160e01b03198216637965db0b60e01b14806103c557506301ffc9a760e01b6001600160e01b03198316145b92915050565b60009081526000805160206111c5833981519152602052604090206001015490565b6103f6826103cb565b6103ff816107f1565b61040983836107fe565b50505050565b6001600160a01b03811633146104385760405163334bd91960e11b815260040160405180910390fd5b61044282826108a3565b505050565b7f6390f5a69ff59edce8e461308dbd399b74f0414e629057022cbc92159a014c76610471816107f1565b6001600160a01b0384166000908152602081905260409020805460ff19168415801591909117909155610507576001600160a01b03841660009081526001602052604090206104c083826110af565b50836001600160a01b03167f27979044fa1bedb9539c4eb3e2fe35b0b0c22a1820437f356977d13013422f8d836040516104fa9190610ffa565b60405180910390a2610409565b6001600160a01b038416600090815260016020526040812061052891610d7b565b6040516001600160a01b038516907fccf550e579fbeb7d56da9a0175f8d4526535cab139e73b592516f1916d4075dd90600090a250505050565b61056a61091f565b610573826109c6565b61057d82826109f0565b5050565b600061058b610ab2565b506000805160206111a583398151915290565b600160205260009081526040902080546105b79061102d565b80601f01602080910402602001604051908101604052809291908181526020018280546105e39061102d565b80156106305780601f1061060557610100808354040283529160200191610630565b820191906000526020600020905b81548152906001019060200180831161061357829003601f168201915b505050505081565b60009182526000805160206111c5833981519152602090815260408084206001600160a01b0393909316845291905290205460ff1690565b600061067a610afb565b805490915060ff600160401b820416159067ffffffffffffffff166000811580156106a25750825b905060008267ffffffffffffffff1660011480156106bf5750303b155b9050811580156106cd575080155b156106eb5760405163f92ee8a960e01b815260040160405180910390fd5b845467ffffffffffffffff19166001178555831561071557845460ff60401b1916600160401b1785555b61071d610b24565b610725610b24565b6107306000876107fe565b5061075b7f6390f5a69ff59edce8e461308dbd399b74f0414e629057022cbc92159a014c76876107fe565b506107867f189ab7a9244df0848122154315af71fe140f3db0fe014031783b0946b8c9d2e3876107fe565b5083156107cd57845460ff60401b19168555604051600181527fc7f505b2f371ae2175ee4913f4499e1f2633a7b5936321eed1cdaeb6115181d29060200160405180910390a15b505050505050565b6107de826103cb565b6107e7816107f1565b61040983836108a3565b6107fb8133610b2c565b50565b60006000805160206111c58339815191526108198484610638565b610899576000848152602082815260408083206001600160a01b03871684529091529020805460ff1916600117905561084f3390565b6001600160a01b0316836001600160a01b0316857f2f8788117e7eff1d82e926ec794901d17c78024a50270940304540a733656f0d60405160405180910390a460019150506103c5565b60009150506103c5565b60006000805160206111c58339815191526108be8484610638565b15610899576000848152602082815260408083206001600160a01b0387168085529252808320805460ff1916905551339287917ff6391f5c32d9c69d2a47ea670b442974b53935d1edc7fd64eb21e047a839171b9190a460019150506103c5565b306001600160a01b037f00000000000000000000000000000000000000000000000000000000000000001614806109a657507f00000000000000000000000000000000000000000000000000000000000000006001600160a01b031661099a6000805160206111a5833981519152546001600160a01b031690565b6001600160a01b031614155b156109c45760405163703e46dd60e11b815260040160405180910390fd5b565b7f189ab7a9244df0848122154315af71fe140f3db0fe014031783b0946b8c9d2e361057d816107f1565b816001600160a01b03166352d1902d6040518163ffffffff1660e01b8152600401602060405180830381865afa925050508015610a4a575060408051601f3d908101601f19168201909252610a479181019061116f565b60015b610a7757604051634c9c8ce360e01b81526001600160a01b03831660048201526024015b60405180910390fd5b6000805160206111a58339815191528114610aa857604051632a87526960e21b815260048101829052602401610a6e565b6104428383610b65565b306001600160a01b037f000000000000000000000000000000000000000000000000000000000000000016146109c45760405163703e46dd60e11b815260040160405180910390fd5b6000807ff0c57e16840df040f15088dc2f81fe391c3923bec73e23a9662efc9c229c6a006103c5565b6109c4610bbb565b610b368282610638565b61057d5760405163e2517d3f60e01b81526001600160a01b038216600482015260248101839052604401610a6e565b610b6e82610be0565b6040516001600160a01b038316907fbc7cd75a20ee27fd9adebab32041f755214dbc6bffa90cc0225b39da2e5c2d3b90600090a2805115610bb3576104428282610c45565b61057d610cbb565b610bc3610cda565b6109c457604051631afcd79f60e31b815260040160405180910390fd5b806001600160a01b03163b600003610c1657604051634c9c8ce360e01b81526001600160a01b0382166004820152602401610a6e565b6000805160206111a583398151915280546001600160a01b0319166001600160a01b0392909216919091179055565b6060600080846001600160a01b031684604051610c629190611188565b600060405180830381855af49150503d8060008114610c9d576040519150601f19603f3d011682016040523d82523d6000602084013e610ca2565b606091505b5091509150610cb2858383610cf4565b95945050505050565b34156109c45760405163b398979f60e01b815260040160405180910390fd5b6000610ce4610afb565b54600160401b900460ff16919050565b606082610d0957610d0482610d53565b610d4c565b8151158015610d2057506001600160a01b0384163b155b15610d4957604051639996b31560e01b81526001600160a01b0385166004820152602401610a6e565b50805b9392505050565b805115610d6257805160208201fd5b60405163d6bda27560e01b815260040160405180910390fd5b508054610d879061102d565b6000825580601f10610d97575050565b601f0160209004906000526020600020908101906107fb91905b80821115610dc55760008155600101610db1565b5090565b600060208284031215610ddb57600080fd5b81356001600160e01b031981168114610d4c57600080fd5b600060208284031215610e0557600080fd5b5035919050565b80356001600160a01b0381168114610e2357600080fd5b919050565b600060208284031215610e3a57600080fd5b610d4c82610e0c565b60008060408385031215610e5657600080fd5b82359150610e6660208401610e0c565b90509250929050565b634e487b7160e01b600052604160045260246000fd5b600067ffffffffffffffff80841115610ea057610ea0610e6f565b604051601f8501601f19908116603f01168101908282118183101715610ec857610ec8610e6f565b81604052809350858152868686011115610ee157600080fd5b858560208301376000602087830101525050509392505050565b600080600060608486031215610f1057600080fd5b610f1984610e0c565b925060208401358015158114610f2e57600080fd5b9150604084013567ffffffffffffffff811115610f4a57600080fd5b8401601f81018613610f5b57600080fd5b610f6a86823560208401610e85565b9150509250925092565b60008060408385031215610f8757600080fd5b610f9083610e0c565b9150602083013567ffffffffffffffff811115610fac57600080fd5b8301601f81018513610fbd57600080fd5b610fcc85823560208401610e85565b9150509250929050565b60005b83811015610ff1578181015183820152602001610fd9565b50506000910152565b6020815260008251806020840152611019816040850160208701610fd6565b601f01601f19169190910160400192915050565b600181811c9082168061104157607f821691505b60208210810361106157634e487b7160e01b600052602260045260246000fd5b50919050565b601f821115610442576000816000526020600020601f850160051c810160208610156110905750805b601f850160051c820191505b818110156107cd5782815560010161109c565b815167ffffffffffffffff8111156110c9576110c9610e6f565b6110dd816110d7845461102d565b84611067565b602080601f83116001811461111257600084156110fa5750858301515b600019600386901b1c1916600185901b1785556107cd565b600085815260208120601f198616915b8281101561114157888601518255948401946001909101908401611122565b508582101561115f5787850151600019600388901b60f8161c191681555b5050505050600190811b01905550565b60006020828403121561118157600080fd5b5051919050565b6000825161119a818460208701610fd6565b919091019291505056fe360894a13ba1a3210667c828492db98dca3e2076cc3735a920a3ca505d382bbc02dd7bc7dec4dceedda775e58dd541e08a116c6c53815c0bd028192f7b626800a2646970667358221220ce2159f53971428a4a268483fb48a082e25b06bee4ddcc535b8c78f6dbc8c46e64736f6c63430008160033",
  "linkReferences": {},
  "deployedLinkReferences": {}
}