{
  "_format": "hh-sol-artifact-1",
  "contractName": "Distribution",
  "sourceName": "contracts/Distribution.sol",
  "abi": [
    {
      "inputs": [],
      "stateMutability": "nonpayable",
      "type": "constructor"
    },
    {
      "inputs": [],
      "name": "AccessControlBadConfirmation",
      "type": "error"
    },
    {
      "inputs": [
        {
          "internalType": "address",
          "name": "account",
          "type": "address"
        },
        {
          "internalType": "bytes32",
          "name": "neededRole",
          "type": "bytes32"
        }
      ],
      "name": "AccessControlUnauthorizedAccount",
      "type": "error"
    },
    {
      "inputs": [
        {
          "internalType": "address",
          "name": "target",
          "type": "address"
        }
      ],
      "name": "AddressEmptyCode",
      "type": "error"
    },
    {
      "inputs": [
        {
          "internalType": "address",
          "name": "implementation",
          "type": "address"
        }
      ],
      "name": "ERC1967InvalidImplementation",
      "type": "error"
    },
    {
      "inputs": [],
      "name": "ERC1967NonPayable",
      "type": "error"
    },
    {
      "inputs": [],
      "name": "FailedCall",
      "type": "error"
    },
    {
      "inputs": [],
      "name": "InvalidInitialization",
      "type": "error"
    },
    {
      "inputs": [],
      "name": "NotInitializing",
      "type": "error"
    },
    {
      "inputs": [],
      "name": "UUPSUnauthorizedCallContext",
      "type": "error"
    },
    {
      "inputs": [
        {
          "internalType": "bytes32",
          "name": "slot",
          "type": "bytes32"
        }
      ],
      "name": "UUPSUnsupportedProxiableUUID",
      "type": "error"
    },
    {
      "anonymous": false,
      "inputs": [
        {
          "indexed": false,
          "internalType": "uint64",
          "name": "version",
          "type": "uint64"
        }
      ],
      "name": "Initialized",
      "type": "event"
    },
    {
      "anonymous": false,
      "inputs": [
        {
          "indexed": true,
          "internalType": "address",
          "name": "user",
          "type": "address"
        },
        {
          "indexed": true,
          "internalType": "uint256",
          "name": "tokenId",
          "type": "uint256"
        },
        {
          "indexed": false,
          "internalType": "uint256",
          "name": "amount",
          "type": "uint256"
        }
      ],
      "name": "RentClaimed",
      "type": "event"
    },
    {
      "anonymous": false,
      "inputs": [
        {
          "indexed": true,
          "internalType": "uint256",
          "name": "tokenId",
          "type": "uint256"
        },
        {
          "indexed": false,
          "internalType": "uint256",
          "name": "amount",
          "type": "uint256"
        }
      ],
      "name": "RentDeposited",
      "type": "event"
    },
    {
      "anonymous": false,
      "inputs": [
        {
          "indexed": true,
          "internalType": "bytes32",
          "name": "role",
          "type": "bytes32"
        },
        {
          "indexed": true,
          "internalType": "bytes32",
          "name": "previousAdminRole",
          "type": "bytes32"
        },
        {
          "indexed": true,
          "internalType": "bytes32",
          "name": "newAdminRole",
          "type": "bytes32"
        }
      ],
      "name": "RoleAdminChanged",
      "type": "event"
    },
    {
      "anonymous": false,
      "inputs": [
        {
          "indexed": true,
          "internalType": "bytes32",
          "name": "role",
          "type": "bytes32"
        },
        {
          "indexed": true,
          "internalType": "address",
          "name": "account",
          "type": "address"
        },
        {
          "indexed": true,
          "internalType": "address",
          "name": "sender",
          "type": "address"
        }
      ],
      "name": "RoleGranted",
      "type": "event"
    },
    {
      "anonymous": false,
      "inputs": [
        {
          "indexed": true,
          "internalType": "bytes32",
          "name": "role",
          "type": "bytes32"
        },
        {
          "indexed": true,
          "internalType": "address",
          "name": "account",
          "type": "address"
        },
        {
          "indexed": true,
          "internalType": "address",
          "name": "sender",
          "type": "address"
        }
      ],
      "name": "RoleRevoked",
      "type": "event"
    },
    {
      "anonymous": false,
      "inputs": [
        {
          "indexed": true,
          "internalType": "address",
          "name": "implementation",
          "type": "address"
        }
      ],
      "name": "Upgraded",
      "type": "event"
    },
    {
      "inputs": [],
      "name": "DEFAULT_ADMIN_ROLE",
      "outputs": [
        {
          "internalType": "bytes32",
          "name": "",
          "type": "bytes32"
        }
      ],
      "stateMutability": "view",
      "type": "function"
    },
    {
      "inputs": [],
      "name": "DISTRIBUTOR_ROLE",
      "outputs": [
        {
          "internalType": "bytes32",
          "name": "",
          "type": "bytes32"
        }
      ],
      "stateMutability": "view",
      "type": "function"
    },
    {
      "inputs": [],
      "name": "UPGRADER_ROLE",
      "outputs": [
        {
          "internalType": "bytes32",
          "name": "",
          "type": "bytes32"
        }
      ],
      "stateMutability": "view",
      "type": "function"
    },
    {
      "inputs": [],
      "name": "UPGRADE_INTERFACE_VERSION",
      "outputs": [
        {
          "internalType": "string",
          "name": "",
          "type": "string"
        }
      ],
      "stateMutability": "view",
      "type": "function"
    },
    {
      "inputs": [
        {
          "internalType": "address[]",
          "name": "recipients",
          "type": "address[]"
        },
        {
          "internalType": "uint256[]",
          "name": "amounts",
          "type": "uint256[]"
        }
      ],
      "name": "allocateRent",
      "outputs": [],
      "stateMutability": "nonpayable",
      "type": "function"
    },
    {
      "inputs": [],
      "name": "claimRent",
      "outputs": [],
      "stateMutability": "nonpayable",
      "type": "function"
    },
    {
      "inputs": [
        {
          "internalType": "address",
          "name": "",
          "type": "address"
        }
      ],
      "name": "claimableBalance",
      "outputs": [
        {
          "internalType": "uint256",
          "name": "",
          "type": "uint256"
        }
      ],
      "stateMutability": "view",
      "type": "function"
    },
    {
      "inputs": [
        {
          "internalType": "uint256",
          "name": "tokenId",
          "type": "uint256"
        },
        {
          "internalType": "uint256",
          "name": "amount",
          "type": "uint256"
        }
      ],
      "name": "depositRent",
      "outputs": [],
      "stateMutability": "nonpayable",
      "type": "function"
    },
    {
      "inputs": [
        {
          "internalType": "bytes32",
          "name": "role",
          "type": "bytes32"
        }
      ],
      "name": "getRoleAdmin",
      "outputs": [
        {
          "internalType": "bytes32",
          "name": "",
          "type": "bytes32"
        }
      ],
      "stateMutability": "view",
      "type": "function"
    },
    {
      "inputs": [
        {
          "internalType": "bytes32",
          "name": "role",
          "type": "bytes32"
        },
        {
          "internalType": "address",
          "name": "account",
          "type": "address"
        }
      ],
      "name": "grantRole",
      "outputs": [],
      "stateMutability": "nonpayable",
      "type": "function"
    },
    {
      "inputs": [
        {
          "internalType": "bytes32",
          "name": "role",
          "type": "bytes32"
        },
        {
          "internalType": "address",
          "name": "account",
          "type": "address"
        }
      ],
      "name": "hasRole",
      "outputs": [
        {
          "internalType": "bool",
          "name": "",
          "type": "bool"
        }
      ],
      "stateMutability": "view",
      "type": "function"
    },
    {
      "inputs": [
        {
          "internalType": "address",
          "name": "defaultAdmin",
          "type": "address"
        },
        {
          "internalType": "address",
          "name": "_realEstateToken",
          "type": "address"
        },
        {
          "internalType": "address",
          "name": "_usdc",
          "type": "address"
        }
      ],
      "name": "initialize",
      "outputs": [],
      "stateMutability": "nonpayable",
      "type": "function"
    },
    {
      "inputs": [],
      "name": "proxiableUUID",
      "outputs": [
        {
          "internalType": "bytes32",
          "name": "",
          "type": "bytes32"
        }
      ],
      "stateMutability": "view",
      "type": "function"
    },
    {
      "inputs": [],
      "name": "realEstateToken",
      "outputs": [
        {
          "internalType": "contract RealEstateToken",
          "name": "",
          "type": "address"
        }
      ],
      "stateMutability": "view",
      "type": "function"
    },
    {
      "inputs": [
        {
          "internalType": "bytes32",
          "name": "role",
          "type": "bytes32"
        },
        {
          "internalType": "address",
          "name": "callerConfirmation",
          "type": "address"
        }
      ],
      "name": "renounceRole",
      "outputs": [],
      "stateMutability": "nonpayable",
      "type": "function"
    },
    {
      "inputs": [
        {
          "internalType": "uint256",
          "name": "",
          "type": "uint256"
        },
        {
          "internalType": "address",
          "name": "",
          "type": "address"
        }
      ],
      "name": "rentWithdrawn",
      "outputs": [
        {
          "internalType": "uint256",
          "name": "",
          "type": "uint256"
        }
      ],
      "stateMutability": "view",
      "type": "function"
    },
    {
      "inputs": [
        {
          "internalType": "bytes32",
          "name": "role",
          "type": "bytes32"
        },
        {
          "internalType": "address",
          "name": "account",
          "type": "address"
        }
      ],
      "name": "revokeRole",
      "outputs": [],
      "stateMutability": "nonpayable",
      "type": "function"
    },
    {
      "inputs": [
        {
          "internalType": "bytes4",
          "name": "interfaceId",
          "type": "bytes4"
        }
      ],
      "name": "supportsInterface",
      "outputs": [
        {
          "internalType": "bool",
          "name": "",
          "type": "bool"
        }
      ],
      "stateMutability": "view",
      "type": "function"
    },
    {
      "inputs": [
        {
          "internalType": "uint256",
          "name": "",
          "type": "uint256"
        }
      ],
      "name": "totalRentDistributed",
      "outputs": [
        {
          "internalType": "uint256",
          "name": "",
          "type": "uint256"
        }
      ],
      "stateMutability": "view",
      "type": "function"
    },
    {
      "inputs": [
        {
          "internalType": "address",
          "name": "newImplementation",
          "type": "address"
        },
        {
          "internalType": "bytes",
          "name": "data",
          "type": "bytes"
        }
      ],
      "name": "upgradeToAndCall",
      "outputs": [],
      "stateMutability": "payable",
      "type": "function"
    },
    {
      "inputs": [],
      "name": "usdc",
      "outputs": [
        {
          "internalType": "contract IERC20",
          "name": "",
          "type": "address"
        }
      ],
      "stateMutability": "view",
      "type": "function"
    }
  ],
  "bytecode": "0x60a06040523060805234801561001457600080fd5b5061001d610022565b6100d4565b7ff0c57e16840df040f15088dc2f81fe391c3923bec73e23a9662efc9c229c6a00805468010000000000000000900460ff16156100725760405163f92ee8a960e01b815260040160405180910390fd5b80546001600160401b03908116146100d15780546001600160401b0319166001600160401b0390811782556040519081527fc7f505b2f371ae2175ee4913f4499e1f2633a7b5936321eed1cdaeb6115181d29060200160405180910390a15b50565b6080516113fa6100fd60003960008181610b9801528181610bc10152610d2601526113fa6000f3fe60806040526004361061012a5760003560e01c80638cbe5104116100ab578063c0c53b8b1161006f578063c0c53b8b14610361578063d4e9f95114610381578063d547741f146103a1578063dbb16c62146103c1578063f0bd87cc146103ee578063f72c0d8b1461041057600080fd5b80638cbe5104146102b957806391d14854146102ce578063a217fddf146102ee578063ad3cb1cc14610303578063b00af2ca1461034157600080fd5b80633e413bee116100f25780633e413bee1461020c5780634f1ef2861461024457806352d1902d1461025757806360f3309b1461026c5780637b2289211461029957600080fd5b806301ffc9a71461012f57806311a22a0214610164578063248a9ca3146101aa5780632f2ff15d146101ca57806336568abe146101ec575b600080fd5b34801561013b57600080fd5b5061014f61014a366004610fe4565b610444565b60405190151581526020015b60405180910390f35b34801561017057600080fd5b5061019c61017f36600461102a565b600360209081526000928352604080842090915290825290205481565b60405190815260200161015b565b3480156101b657600080fd5b5061019c6101c5366004611056565b61047b565b3480156101d657600080fd5b506101ea6101e536600461102a565b61049d565b005b3480156101f857600080fd5b506101ea61020736600461102a565b6104bf565b34801561021857600080fd5b5060015461022c906001600160a01b031681565b6040516001600160a01b03909116815260200161015b565b6101ea610252366004611085565b6104f7565b34801561026357600080fd5b5061019c610516565b34801561027857600080fd5b5061019c610287366004611147565b60046020526000908152604090205481565b3480156102a557600080fd5b506101ea6102b43660046111ae565b610533565b3480156102c557600080fd5b506101ea610624565b3480156102da57600080fd5b5061014f6102e936600461102a565b610776565b3480156102fa57600080fd5b5061019c600081565b34801561030f57600080fd5b50610334604051806040016040528060058152602001640352e302e360dc1b81525081565b60405161015b919061123e565b34801561034d57600080fd5b506101ea61035c366004611271565b6107ae565b34801561036d57600080fd5b506101ea61037c366004611293565b6108be565b34801561038d57600080fd5b5060005461022c906001600160a01b031681565b3480156103ad57600080fd5b506101ea6103bc36600461102a565b610a43565b3480156103cd57600080fd5b5061019c6103dc366004611056565b60026020526000908152604090205481565b3480156103fa57600080fd5b5061019c60008051602061136583398151915281565b34801561041c57600080fd5b5061019c7f189ab7a9244df0848122154315af71fe140f3db0fe014031783b0946b8c9d2e381565b60006001600160e01b03198216637965db0b60e01b148061047557506301ffc9a760e01b6001600160e01b03198316145b92915050565b60009081526000805160206113a5833981519152602052604090206001015490565b6104a68261047b565b6104af81610a5f565b6104b98383610a6c565b50505050565b6001600160a01b03811633146104e85760405163334bd91960e11b815260040160405180910390fd5b6104f28282610b11565b505050565b6104ff610b8d565b61050882610c34565b6105128282610c5e565b5050565b6000610520610d1b565b5060008051602061138583398151915290565b60008051602061136583398151915261054b81610a5f565b8382146105915760405162461bcd60e51b815260206004820152600f60248201526e098cadccee8d040dad2e6dac2e8c6d608b1b60448201526064015b60405180910390fd5b60005b8481101561061c578383828181106105ae576105ae6112d6565b90506020020135600460008888858181106105cb576105cb6112d6565b90506020020160208101906105e09190611147565b6001600160a01b03166001600160a01b03168152602001908152602001600020600082825461060f91906112ec565b9091555050600101610594565b505050505050565b33600090815260046020526040902054806106745760405162461bcd60e51b815260206004820152601060248201526f4e6f2072656e7420746f20636c61696d60801b6044820152606401610588565b33600081815260046020819052604080832092909255600154915163a9059cbb60e01b815290810192909252602482018390526001600160a01b03169063a9059cbb906044016020604051808303816000875af11580156106d9573d6000803e3d6000fd5b505050506040513d601f19601f820116820180604052508101906106fd919061130d565b61073b5760405162461bcd60e51b815260206004820152600f60248201526e151c985b9cd9995c8819985a5b1959608a1b6044820152606401610588565b60405181815260009033907f7a2d6ece444a50236f69f914f734a97dbecb046c5e7743e433ab665d75d360d79060200160405180910390a350565b60009182526000805160206113a5833981519152602090815260408084206001600160a01b0393909316845291905290205460ff1690565b6000805160206113658339815191526107c681610a5f565b6001546040516323b872dd60e01b8152336004820152306024820152604481018490526001600160a01b03909116906323b872dd906064016020604051808303816000875af115801561081d573d6000803e3d6000fd5b505050506040513d601f19601f82011682018060405250810190610841919061130d565b61087f5760405162461bcd60e51b815260206004820152600f60248201526e151c985b9cd9995c8819985a5b1959608a1b6044820152606401610588565b827f501e890b4c2d21bc2ff7628fdd958af0db45f8cdbb897d7dae08674fda5e0bb8836040516108b191815260200190565b60405180910390a2505050565b60006108c8610d64565b805490915060ff600160401b820416159067ffffffffffffffff166000811580156108f05750825b905060008267ffffffffffffffff16600114801561090d5750303b155b90508115801561091b575080155b156109395760405163f92ee8a960e01b815260040160405180910390fd5b845467ffffffffffffffff19166001178555831561096357845460ff60401b1916600160401b1785555b61096b610d8d565b610973610d8d565b61097e600089610a6c565b5061099760008051602061136583398151915289610a6c565b506109c27f189ab7a9244df0848122154315af71fe140f3db0fe014031783b0946b8c9d2e389610a6c565b50600080546001600160a01b03808a166001600160a01b03199283161790925560018054928916929091169190911790558315610a3957845460ff60401b19168555604051600181527fc7f505b2f371ae2175ee4913f4499e1f2633a7b5936321eed1cdaeb6115181d29060200160405180910390a15b5050505050505050565b610a4c8261047b565b610a5581610a5f565b6104b98383610b11565b610a698133610d95565b50565b60006000805160206113a5833981519152610a878484610776565b610b07576000848152602082815260408083206001600160a01b03871684529091529020805460ff19166001179055610abd3390565b6001600160a01b0316836001600160a01b0316857f2f8788117e7eff1d82e926ec794901d17c78024a50270940304540a733656f0d60405160405180910390a46001915050610475565b6000915050610475565b60006000805160206113a5833981519152610b2c8484610776565b15610b07576000848152602082815260408083206001600160a01b0387168085529252808320805460ff1916905551339287917ff6391f5c32d9c69d2a47ea670b442974b53935d1edc7fd64eb21e047a839171b9190a46001915050610475565b306001600160a01b037f0000000000000000000000000000000000000000000000000000000000000000161480610c1457507f00000000000000000000000000000000000000000000000000000000000000006001600160a01b0316610c08600080516020611385833981519152546001600160a01b031690565b6001600160a01b031614155b15610c325760405163703e46dd60e11b815260040160405180910390fd5b565b7f189ab7a9244df0848122154315af71fe140f3db0fe014031783b0946b8c9d2e361051281610a5f565b816001600160a01b03166352d1902d6040518163ffffffff1660e01b8152600401602060405180830381865afa925050508015610cb8575060408051601f3d908101601f19168201909252610cb59181019061132f565b60015b610ce057604051634c9c8ce360e01b81526001600160a01b0383166004820152602401610588565b6000805160206113858339815191528114610d1157604051632a87526960e21b815260048101829052602401610588565b6104f28383610dce565b306001600160a01b037f00000000000000000000000000000000000000000000000000000000000000001614610c325760405163703e46dd60e11b815260040160405180910390fd5b6000807ff0c57e16840df040f15088dc2f81fe391c3923bec73e23a9662efc9c229c6a00610475565b610c32610e24565b610d9f8282610776565b6105125760405163e2517d3f60e01b81526001600160a01b038216600482015260248101839052604401610588565b610dd782610e49565b6040516001600160a01b038316907fbc7cd75a20ee27fd9adebab32041f755214dbc6bffa90cc0225b39da2e5c2d3b90600090a2805115610e1c576104f28282610eae565b610512610f24565b610e2c610f43565b610c3257604051631afcd79f60e31b815260040160405180910390fd5b806001600160a01b03163b600003610e7f57604051634c9c8ce360e01b81526001600160a01b0382166004820152602401610588565b60008051602061138583398151915280546001600160a01b0319166001600160a01b0392909216919091179055565b6060600080846001600160a01b031684604051610ecb9190611348565b600060405180830381855af49150503d8060008114610f06576040519150601f19603f3d011682016040523d82523d6000602084013e610f0b565b606091505b5091509150610f1b858383610f5d565b95945050505050565b3415610c325760405163b398979f60e01b815260040160405180910390fd5b6000610f4d610d64565b54600160401b900460ff16919050565b606082610f7257610f6d82610fbc565b610fb5565b8151158015610f8957506001600160a01b0384163b155b15610fb257604051639996b31560e01b81526001600160a01b0385166004820152602401610588565b50805b9392505050565b805115610fcb57805160208201fd5b60405163d6bda27560e01b815260040160405180910390fd5b600060208284031215610ff657600080fd5b81356001600160e01b031981168114610fb557600080fd5b80356001600160a01b038116811461102557600080fd5b919050565b6000806040838503121561103d57600080fd5b8235915061104d6020840161100e565b90509250929050565b60006020828403121561106857600080fd5b5035919050565b634e487b7160e01b600052604160045260246000fd5b6000806040838503121561109857600080fd5b6110a18361100e565b9150602083013567ffffffffffffffff808211156110be57600080fd5b818501915085601f8301126110d257600080fd5b8135818111156110e4576110e461106f565b604051601f8201601f19908116603f0116810190838211818310171561110c5761110c61106f565b8160405282815288602084870101111561112557600080fd5b8260208601602083013760006020848301015280955050505050509250929050565b60006020828403121561115957600080fd5b610fb58261100e565b60008083601f84011261117457600080fd5b50813567ffffffffffffffff81111561118c57600080fd5b6020830191508360208260051b85010111156111a757600080fd5b9250929050565b600080600080604085870312156111c457600080fd5b843567ffffffffffffffff808211156111dc57600080fd5b6111e888838901611162565b9096509450602087013591508082111561120157600080fd5b5061120e87828801611162565b95989497509550505050565b60005b8381101561123557818101518382015260200161121d565b50506000910152565b602081526000825180602084015261125d81604085016020870161121a565b601f01601f19169190910160400192915050565b6000806040838503121561128457600080fd5b50508035926020909101359150565b6000806000606084860312156112a857600080fd5b6112b18461100e565b92506112bf6020850161100e565b91506112cd6040850161100e565b90509250925092565b634e487b7160e01b600052603260045260246000fd5b8082018082111561047557634e487b7160e01b600052601160045260246000fd5b60006020828403121561131f57600080fd5b81518015158114610fb557600080fd5b60006020828403121561134157600080fd5b5051919050565b6000825161135a81846020870161121a565b919091019291505056fefbd454f36a7e1a388bd6fc3ab10d434aa4578f811acbbcf33afb1c697486313c360894a13ba1a3210667c828492db98dca3e2076cc3735a920a3ca505d382bbc02dd7bc7dec4dceedda775e58dd541e08a116c6c53815c0bd028192f7b626800a2646970667358221220be445881353b7329ff8f4645ca55290195e037b699f4a44f8459280e20d32c1564736f6c63430008160033",
  "linkReferences": {},
  "deployedLinkReferences": {}
}