{
  "_format": "hh-sol-artifact-1",
  "contractName": "Marketplace",
  "sourceName": "contracts/Marketplace.sol",
  "abi": [
    {
      "inputs": [],
      "stateMutability": "nonpayable",
      "type": "constructor"
    },
    {
      "inputs": [],
      "name": "AccessControlBadConfirmation",
      "type": "error"
    },
    {
      "inputs": [
        {
          "internalType": "address",
          "name": "account",
          "type": "address"
        },
        {
          "internalType": "bytes32",
          "name": "neededRole",
          "type": "bytes32"
        }
      ],
      "name": "AccessControlUnauthorizedAccount",
      "type": "error"
    },
    {
      "inputs": [
        {
          "internalType": "address",
          "name": "target",
          "type": "address"
        }
      ],
      "name": "AddressEmptyCode",
      "type": "error"
    },
    {
      "inputs": [
        {
          "internalType": "address",
          "name": "implementation",
          "type": "address"
        }
      ],
      "name": "ERC1967InvalidImplementation",
      "type": "error"
    },
    {
      "inputs": [],
      "name": "ERC1967NonPayable",
      "type": "error"
    },
    {
      "inputs": [],
      "name": "FailedCall",
      "type": "error"
    },
    {
      "inputs": [],
      "name": "InvalidInitialization",
      "type": "error"
    },
    {
      "inputs": [],
      "name": "NotInitializing",
      "type": "error"
    },
    {
      "inputs": [],
      "name": "ReentrancyGuardReentrantCall",
      "type": "error"
    },
    {
      "inputs": [],
      "name": "UUPSUnauthorizedCallContext",
      "type": "error"
    },
    {
      "inputs": [
        {
          "internalType": "bytes32",
          "name": "slot",
          "type": "bytes32"
        }
      ],
      "name": "UUPSUnsupportedProxiableUUID",
      "type": "error"
    },
    {
      "anonymous": false,
      "inputs": [
        {
          "indexed": false,
          "internalType": "uint64",
          "name": "version",
          "type": "uint64"
        }
      ],
      "name": "Initialized",
      "type": "event"
    },
    {
      "anonymous": false,
      "inputs": [
        {
          "indexed": true,
          "internalType": "uint256",
          "name": "listingId",
          "type": "uint256"
        }
      ],
      "name": "ListingCancelled",
      "type": "event"
    },
    {
      "anonymous": false,
      "inputs": [
        {
          "indexed": true,
          "internalType": "uint256",
          "name": "listingId",
          "type": "uint256"
        },
        {
          "indexed": true,
          "internalType": "address",
          "name": "seller",
          "type": "address"
        },
        {
          "indexed": true,
          "internalType": "uint256",
          "name": "tokenId",
          "type": "uint256"
        },
        {
          "indexed": false,
          "internalType": "uint256",
          "name": "amount",
          "type": "uint256"
        },
        {
          "indexed": false,
          "internalType": "uint256",
          "name": "price",
          "type": "uint256"
        }
      ],
      "name": "ListingCreated",
      "type": "event"
    },
    {
      "anonymous": false,
      "inputs": [
        {
          "indexed": true,
          "internalType": "uint256",
          "name": "listingId",
          "type": "uint256"
        },
        {
          "indexed": true,
          "internalType": "address",
          "name": "buyer",
          "type": "address"
        },
        {
          "indexed": false,
          "internalType": "uint256",
          "name": "amount",
          "type": "uint256"
        }
      ],
      "name": "ListingSold",
      "type": "event"
    },
    {
      "anonymous": false,
      "inputs": [
        {
          "indexed": true,
          "internalType": "bytes32",
          "name": "role",
          "type": "bytes32"
        },
        {
          "indexed": true,
          "internalType": "bytes32",
          "name": "previousAdminRole",
          "type": "bytes32"
        },
        {
          "indexed": true,
          "internalType": "bytes32",
          "name": "newAdminRole",
          "type": "bytes32"
        }
      ],
      "name": "RoleAdminChanged",
      "type": "event"
    },
    {
      "anonymous": false,
      "inputs": [
        {
          "indexed": true,
          "internalType": "bytes32",
          "name": "role",
          "type": "bytes32"
        },
        {
          "indexed": true,
          "internalType": "address",
          "name": "account",
          "type": "address"
        },
        {
          "indexed": true,
          "internalType": "address",
          "name": "sender",
          "type": "address"
        }
      ],
      "name": "RoleGranted",
      "type": "event"
    },
    {
      "anonymous": false,
      "inputs": [
        {
          "indexed": true,
          "internalType": "bytes32",
          "name": "role",
          "type": "bytes32"
        },
        {
          "indexed": true,
          "internalType": "address",
          "name": "account",
          "type": "address"
        },
        {
          "indexed": true,
          "internalType": "address",
          "name": "sender",
          "type": "address"
        }
      ],
      "name": "RoleRevoked",
      "type": "event"
    },
    {
      "anonymous": false,
      "inputs": [
        {
          "indexed": true,
          "internalType": "address",
          "name": "implementation",
          "type": "address"
        }
      ],
      "name": "Upgraded",
      "type": "event"
    },
    {
      "inputs": [],
      "name": "DEFAULT_ADMIN_ROLE",
      "outputs": [
        {
          "internalType": "bytes32",
          "name": "",
          "type": "bytes32"
        }
      ],
      "stateMutability": "view",
      "type": "function"
    },
    {
      "inputs": [],
      "name": "UPGRADER_ROLE",
      "outputs": [
        {
          "internalType": "bytes32",
          "name": "",
          "type": "bytes32"
        }
      ],
      "stateMutability": "view",
      "type": "function"
    },
    {
      "inputs": [],
      "name": "UPGRADE_INTERFACE_VERSION",
      "outputs": [
        {
          "internalType": "string",
          "name": "",
          "type": "string"
        }
      ],
      "stateMutability": "view",
      "type": "function"
    },
    {
      "inputs": [
        {
          "internalType": "uint256",
          "name": "listingId",
          "type": "uint256"
        },
        {
          "internalType": "uint256",
          "name": "amount",
          "type": "uint256"
        }
      ],
      "name": "buyListing",
      "outputs": [],
      "stateMutability": "nonpayable",
      "type": "function"
    },
    {
      "inputs": [
        {
          "internalType": "uint256",
          "name": "listingId",
          "type": "uint256"
        }
      ],
      "name": "cancelListing",
      "outputs": [],
      "stateMutability": "nonpayable",
      "type": "function"
    },
    {
      "inputs": [
        {
          "internalType": "uint256",
          "name": "tokenId",
          "type": "uint256"
        },
        {
          "internalType": "uint256",
          "name": "amount",
          "type": "uint256"
        },
        {
          "internalType": "uint256",
          "name": "pricePerShare",
          "type": "uint256"
        }
      ],
      "name": "createListing",
      "outputs": [],
      "stateMutability": "nonpayable",
      "type": "function"
    },
    {
      "inputs": [
        {
          "internalType": "bytes32",
          "name": "role",
          "type": "bytes32"
        }
      ],
      "name": "getRoleAdmin",
      "outputs": [
        {
          "internalType": "bytes32",
          "name": "",
          "type": "bytes32"
        }
      ],
      "stateMutability": "view",
      "type": "function"
    },
    {
      "inputs": [
        {
          "internalType": "bytes32",
          "name": "role",
          "type": "bytes32"
        },
        {
          "internalType": "address",
          "name": "account",
          "type": "address"
        }
      ],
      "name": "grantRole",
      "outputs": [],
      "stateMutability": "nonpayable",
      "type": "function"
    },
    {
      "inputs": [
        {
          "internalType": "bytes32",
          "name": "role",
          "type": "bytes32"
        },
        {
          "internalType": "address",
          "name": "account",
          "type": "address"
        }
      ],
      "name": "hasRole",
      "outputs": [
        {
          "internalType": "bool",
          "name": "",
          "type": "bool"
        }
      ],
      "stateMutability": "view",
      "type": "function"
    },
    {
      "inputs": [
        {
          "internalType": "address",
          "name": "defaultAdmin",
          "type": "address"
        },
        {
          "internalType": "address",
          "name": "_realEstateToken",
          "type": "address"
        },
        {
          "internalType": "address",
          "name": "_usdc",
          "type": "address"
        }
      ],
      "name": "initialize",
      "outputs": [],
      "stateMutability": "nonpayable",
      "type": "function"
    },
    {
      "inputs": [
        {
          "internalType": "uint256",
          "name": "",
          "type": "uint256"
        }
      ],
      "name": "listings",
      "outputs": [
        {
          "internalType": "address",
          "name": "seller",
          "type": "address"
        },
        {
          "internalType": "uint256",
          "name": "tokenId",
          "type": "uint256"
        },
        {
          "internalType": "uint256",
          "name": "amount",
          "type": "uint256"
        },
        {
          "internalType": "uint256",
          "name": "pricePerShare",
          "type": "uint256"
        },
        {
          "internalType": "bool",
          "name": "isActive",
          "type": "bool"
        }
      ],
      "stateMutability": "view",
      "type": "function"
    },
    {
      "inputs": [],
      "name": "nextListingId",
      "outputs": [
        {
          "internalType": "uint256",
          "name": "",
          "type": "uint256"
        }
      ],
      "stateMutability": "view",
      "type": "function"
    },
    {
      "inputs": [],
      "name": "proxiableUUID",
      "outputs": [
        {
          "internalType": "bytes32",
          "name": "",
          "type": "bytes32"
        }
      ],
      "stateMutability": "view",
      "type": "function"
    },
    {
      "inputs": [],
      "name": "realEstateToken",
      "outputs": [
        {
          "internalType": "contract RealEstateToken",
          "name": "",
          "type": "address"
        }
      ],
      "stateMutability": "view",
      "type": "function"
    },
    {
      "inputs": [
        {
          "internalType": "bytes32",
          "name": "role",
          "type": "bytes32"
        },
        {
          "internalType": "address",
          "name": "callerConfirmation",
          "type": "address"
        }
      ],
      "name": "renounceRole",
      "outputs": [],
      "stateMutability": "nonpayable",
      "type": "function"
    },
    {
      "inputs": [
        {
          "internalType": "bytes32",
          "name": "role",
          "type": "bytes32"
        },
        {
          "internalType": "address",
          "name": "account",
          "type": "address"
        }
      ],
      "name": "revokeRole",
      "outputs": [],
      "stateMutability": "nonpayable",
      "type": "function"
    },
    {
      "inputs": [
        {
          "internalType": "bytes4",
          "name": "interfaceId",
          "type": "bytes4"
        }
      ],
      "name": "supportsInterface",
      "outputs": [
        {
          "internalType": "bool",
          "name": "",
          "type": "bool"
        }
      ],
      "stateMutability": "view",
      "type": "function"
    },
    {
      "inputs": [
        {
          "internalType": "address",
          "name": "newImplementation",
          "type": "address"
        },
        {
          "internalType": "bytes",
          "name": "data",
          "type": "bytes"
        }
      ],
      "name": "upgradeToAndCall",
      "outputs": [],
      "stateMutability": "payable",
      "type": "function"
    },
    {
      "inputs": [],
      "name": "usdc",
      "outputs": [
        {
          "internalType": "contract IERC20",
          "name": "",
          "type": "address"
        }
      ],
      "stateMutability": "view",
      "type": "function"
    }
  ],
  "bytecode": "0x60a06040523060805234801561001457600080fd5b5061001d610022565b6100d4565b7ff0c57e16840df040f15088dc2f81fe391c3923bec73e23a9662efc9c229c6a00805468010000000000000000900460ff16156100725760405163f92ee8a960e01b815260040160405180910390fd5b80546001600160401b03908116146100d15780546001600160401b0319166001600160401b0390811782556040519081527fc7f505b2f371ae2175ee4913f4499e1f2633a7b5936321eed1cdaeb6115181d29060200160405180910390a15b50565b6080516116136100fd60003960008181610dce01528181610df70152610f5c01526116136000f3fe6080604052600436106101145760003560e01c806391d14854116100a0578063c0c53b8b11610064578063c0c53b8b14610307578063d4e9f95114610327578063d547741f14610347578063de74e57b14610367578063f72c0d8b146103f257600080fd5b806391d148541461025e578063a217fddf1461027e578063aaccf1ec14610293578063ad3cb1cc146102a9578063b03053b6146102e757600080fd5b806336568abe116100e757806336568abe146101be5780633e413bee146101de5780634f1ef2861461021657806352d1902d146102295780636d0ba1d31461023e57600080fd5b806301ffc9a714610119578063248a9ca31461014e5780632f2ff15d1461017c578063305a67a81461019e575b600080fd5b34801561012557600080fd5b506101396101343660046112a2565b610426565b60405190151581526020015b60405180910390f35b34801561015a57600080fd5b5061016e6101693660046112cc565b61045d565b604051908152602001610145565b34801561018857600080fd5b5061019c610197366004611301565b61047f565b005b3480156101aa57600080fd5b5061019c6101b93660046112cc565b6104a1565b3480156101ca57600080fd5b5061019c6101d9366004611301565b610576565b3480156101ea57600080fd5b506001546101fe906001600160a01b031681565b6040516001600160a01b039091168152602001610145565b61019c610224366004611343565b6105ae565b34801561023557600080fd5b5061016e6105cd565b34801561024a57600080fd5b5061019c610259366004611405565b6105ea565b34801561026a57600080fd5b50610139610279366004611301565b610877565b34801561028a57600080fd5b5061016e600081565b34801561029f57600080fd5b5061016e60035481565b3480156102b557600080fd5b506102da604051806040016040528060058152602001640352e302e360dc1b81525081565b604051610145919061144b565b3480156102f357600080fd5b5061019c61030236600461147e565b6108af565b34801561031357600080fd5b5061019c6103223660046114aa565b610b02565b34801561033357600080fd5b506000546101fe906001600160a01b031681565b34801561035357600080fd5b5061019c610362366004611301565b610c79565b34801561037357600080fd5b506103be6103823660046112cc565b6002602081905260009182526040909120805460018201549282015460038301546004909301546001600160a01b039092169392909160ff1685565b604080516001600160a01b03909616865260208601949094529284019190915260608301521515608082015260a001610145565b3480156103fe57600080fd5b5061016e7f189ab7a9244df0848122154315af71fe140f3db0fe014031783b0946b8c9d2e381565b60006001600160e01b03198216637965db0b60e01b148061045757506301ffc9a760e01b6001600160e01b03198316145b92915050565b60009081526000805160206115be833981519152602052604090206001015490565b6104888261045d565b61049181610c95565b61049b8383610ca2565b50505050565b600081815260026020526040902080546001600160a01b031633146104fa5760405162461bcd60e51b815260206004820152600a6024820152692737ba1039b2b63632b960b11b60448201526064015b60405180910390fd5b600481015460ff1661053b5760405162461bcd60e51b815260206004820152600a6024820152694e6f742061637469766560b01b60448201526064016104f1565b60048101805460ff1916905560405182907f411aee90354c51b1b04cd563fcab2617142a9d50da19232d888547c8a1b7fd8a90600090a25050565b6001600160a01b038116331461059f5760405163334bd91960e11b815260040160405180910390fd5b6105a98282610d47565b505050565b6105b6610dc3565b6105bf82610e6a565b6105c98282610e94565b5050565b60006105d7610f51565b5060008051602061159e83398151915290565b6105f2610f9a565b6000828152600260205260409020600481015460ff166106415760405162461bcd60e51b815260206004820152600a6024820152694e6f742061637469766560b01b60448201526064016104f1565b818160020154101561068b5760405162461bcd60e51b81526020600482015260136024820152724e6f7420656e6f756768207175616e7469747960681b60448201526064016104f1565b600081600301548361069d9190611503565b60015483546040516323b872dd60e01b81523360048201526001600160a01b0391821660248201526044810184905292935016906323b872dd906064016020604051808303816000875af11580156106f9573d6000803e3d6000fd5b505050506040513d601f19601f8201168201806040525081019061071d919061151a565b61075a5760405162461bcd60e51b815260206004820152600e60248201526d14185e5b595b9d0819985a5b195960921b60448201526064016104f1565b6000805483546001850154604051637921219560e11b81526001600160a01b03928316600482015233602482015260448101919091526064810187905260a0608482015260a4810193909352169063f242432a9060c401600060405180830381600087803b1580156107cb57600080fd5b505af11580156107df573d6000803e3d6000fd5b50505050828260020160008282546107f7919061153c565b909155505060028201546000036108155760048201805460ff191690555b604051838152339085907f8e378317cc1b9c64766fd136e5849da5f702d26a8f8b750115b7422909b2309f9060200160405180910390a350506105c960017f9b779b17422d0df92223018b32b4d1fa46e071723d6817e2486d003becc55f0055565b60009182526000805160206115be833981519152602090815260408084206001600160a01b0393909316845291905290205460ff1690565b600054604051627eeac760e11b81523360048201526024810185905283916001600160a01b03169062fdd58e90604401602060405180830381865afa1580156108fc573d6000803e3d6000fd5b505050506040513d601f19601f82011682018060405250810190610920919061154f565b10156109655760405162461bcd60e51b8152602060048201526014602482015273496e73756666696369656e742062616c616e636560601b60448201526064016104f1565b60005460405163e985e9c560e01b81523360048201523060248201526001600160a01b039091169063e985e9c590604401602060405180830381865afa1580156109b3573d6000803e3d6000fd5b505050506040513d601f19601f820116820180604052508101906109d7919061151a565b610a235760405162461bcd60e51b815260206004820152601860248201527f4d61726b6574706c616365206e6f7420617070726f766564000000000000000060448201526064016104f1565b6040805160a081018252338082526020808301878152838501878152606085018781526001608087018181526003805460009081526002808952908b902099518a546001600160a01b0319166001600160a01b03909116178a559551928901929092559251938701939093555185830155516004909401805460ff191694151594909417909355915483518681529283018590528693919290917fa3941cfa07eecf2734875ab71cea0e47395be644da6e17b039a7e29efba74ef9910160405180910390a460038054906000610af883611568565b9190505550505050565b6000610b0c61100a565b805490915060ff600160401b820416159067ffffffffffffffff16600081158015610b345750825b905060008267ffffffffffffffff166001148015610b515750303b155b905081158015610b5f575080155b15610b7d5760405163f92ee8a960e01b815260040160405180910390fd5b845467ffffffffffffffff191660011785558315610ba757845460ff60401b1916600160401b1785555b610baf611033565b610bb7611033565b610bbf61103b565b610bca600089610ca2565b50610bf57f189ab7a9244df0848122154315af71fe140f3db0fe014031783b0946b8c9d2e389610ca2565b50600080546001600160a01b03808a166001600160a01b03199283161790925560018054928916929091169190911781556003558315610c6f57845460ff60401b19168555604051600181527fc7f505b2f371ae2175ee4913f4499e1f2633a7b5936321eed1cdaeb6115181d29060200160405180910390a15b5050505050505050565b610c828261045d565b610c8b81610c95565b61049b8383610d47565b610c9f813361104b565b50565b60006000805160206115be833981519152610cbd8484610877565b610d3d576000848152602082815260408083206001600160a01b03871684529091529020805460ff19166001179055610cf33390565b6001600160a01b0316836001600160a01b0316857f2f8788117e7eff1d82e926ec794901d17c78024a50270940304540a733656f0d60405160405180910390a46001915050610457565b6000915050610457565b60006000805160206115be833981519152610d628484610877565b15610d3d576000848152602082815260408083206001600160a01b0387168085529252808320805460ff1916905551339287917ff6391f5c32d9c69d2a47ea670b442974b53935d1edc7fd64eb21e047a839171b9190a46001915050610457565b306001600160a01b037f0000000000000000000000000000000000000000000000000000000000000000161480610e4a57507f00000000000000000000000000000000000000000000000000000000000000006001600160a01b0316610e3e60008051602061159e833981519152546001600160a01b031690565b6001600160a01b031614155b15610e685760405163703e46dd60e11b815260040160405180910390fd5b565b7f189ab7a9244df0848122154315af71fe140f3db0fe014031783b0946b8c9d2e36105c981610c95565b816001600160a01b03166352d1902d6040518163ffffffff1660e01b8152600401602060405180830381865afa925050508015610eee575060408051601f3d908101601f19168201909252610eeb9181019061154f565b60015b610f1657604051634c9c8ce360e01b81526001600160a01b03831660048201526024016104f1565b60008051602061159e8339815191528114610f4757604051632a87526960e21b8152600481018290526024016104f1565b6105a98383611084565b306001600160a01b037f00000000000000000000000000000000000000000000000000000000000000001614610e685760405163703e46dd60e11b815260040160405180910390fd5b7f9b779b17422d0df92223018b32b4d1fa46e071723d6817e2486d003becc55f00805460011901610fde57604051633ee5aeb560e01b815260040160405180910390fd5b60029055565b60017f9b779b17422d0df92223018b32b4d1fa46e071723d6817e2486d003becc55f0055565b6000807ff0c57e16840df040f15088dc2f81fe391c3923bec73e23a9662efc9c229c6a00610457565b610e686110da565b6110436110da565b610e686110ff565b6110558282610877565b6105c95760405163e2517d3f60e01b81526001600160a01b0382166004820152602481018390526044016104f1565b61108d82611107565b6040516001600160a01b038316907fbc7cd75a20ee27fd9adebab32041f755214dbc6bffa90cc0225b39da2e5c2d3b90600090a28051156110d2576105a9828261116c565b6105c96111e2565b6110e2611201565b610e6857604051631afcd79f60e31b815260040160405180910390fd5b610fe46110da565b806001600160a01b03163b60000361113d57604051634c9c8ce360e01b81526001600160a01b03821660048201526024016104f1565b60008051602061159e83398151915280546001600160a01b0319166001600160a01b0392909216919091179055565b6060600080846001600160a01b0316846040516111899190611581565b600060405180830381855af49150503d80600081146111c4576040519150601f19603f3d011682016040523d82523d6000602084013e6111c9565b606091505b50915091506111d985838361121b565b95945050505050565b3415610e685760405163b398979f60e01b815260040160405180910390fd5b600061120b61100a565b54600160401b900460ff16919050565b6060826112305761122b8261127a565b611273565b815115801561124757506001600160a01b0384163b155b1561127057604051639996b31560e01b81526001600160a01b03851660048201526024016104f1565b50805b9392505050565b80511561128957805160208201fd5b60405163d6bda27560e01b815260040160405180910390fd5b6000602082840312156112b457600080fd5b81356001600160e01b03198116811461127357600080fd5b6000602082840312156112de57600080fd5b5035919050565b80356001600160a01b03811681146112fc57600080fd5b919050565b6000806040838503121561131457600080fd5b82359150611324602084016112e5565b90509250929050565b634e487b7160e01b600052604160045260246000fd5b6000806040838503121561135657600080fd5b61135f836112e5565b9150602083013567ffffffffffffffff8082111561137c57600080fd5b818501915085601f83011261139057600080fd5b8135818111156113a2576113a261132d565b604051601f8201601f19908116603f011681019083821181831017156113ca576113ca61132d565b816040528281528860208487010111156113e357600080fd5b8260208601602083013760006020848301015280955050505050509250929050565b6000806040838503121561141857600080fd5b50508035926020909101359150565b60005b8381101561144257818101518382015260200161142a565b50506000910152565b602081526000825180602084015261146a816040850160208701611427565b601f01601f19169190910160400192915050565b60008060006060848603121561149357600080fd5b505081359360208301359350604090920135919050565b6000806000606084860312156114bf57600080fd5b6114c8846112e5565b92506114d6602085016112e5565b91506114e4604085016112e5565b90509250925092565b634e487b7160e01b600052601160045260246000fd5b8082028115828204841417610457576104576114ed565b60006020828403121561152c57600080fd5b8151801515811461127357600080fd5b81810381811115610457576104576114ed565b60006020828403121561156157600080fd5b5051919050565b60006001820161157a5761157a6114ed565b5060010190565b60008251611593818460208701611427565b919091019291505056fe360894a13ba1a3210667c828492db98dca3e2076cc3735a920a3ca505d382bbc02dd7bc7dec4dceedda775e58dd541e08a116c6c53815c0bd028192f7b626800a26469706673582212204145a39c6c3d6f0184c95c4ee6301c73ea0f5661f6d08b099be05f8f0cede38b64736f6c63430008160033",
  "linkReferences": {},
  "deployedLinkReferences": {}
}