{
  "_format": "hh-sol-artifact-1",
  "contractName": "MeluriDAO",
  "sourceName": "contracts/MeluriDAO.sol",
  "abi": [
    {
      "inputs": [],
      "stateMutability": "nonpayable",
      "type": "constructor"
    },
    {
      "inputs": [],
      "name": "AccessControlBadConfirmation",
      "type": "error"
    },
    {
      "inputs": [
        {
          "internalType": "address",
          "name": "account",
          "type": "address"
        },
        {
          "internalType": "bytes32",
          "name": "neededRole",
          "type": "bytes32"
        }
      ],
      "name": "AccessControlUnauthorizedAccount",
      "type": "error"
    },
    {
      "inputs": [
        {
          "internalType": "address",
          "name": "target",
          "type": "address"
        }
      ],
      "name": "AddressEmptyCode",
      "type": "error"
    },
    {
      "inputs": [
        {
          "internalType": "address",
          "name": "implementation",
          "type": "address"
        }
      ],
      "name": "ERC1967InvalidImplementation",
      "type": "error"
    },
    {
      "inputs": [],
      "name": "ERC1967NonPayable",
      "type": "error"
    },
    {
      "inputs": [],
      "name": "FailedCall",
      "type": "error"
    },
    {
      "inputs": [],
      "name": "InvalidInitialization",
      "type": "error"
    },
    {
      "inputs": [],
      "name": "NotInitializing",
      "type": "error"
    },
    {
      "inputs": [],
      "name": "UUPSUnauthorizedCallContext",
      "type": "error"
    },
    {
      "inputs": [
        {
          "internalType": "bytes32",
          "name": "slot",
          "type": "bytes32"
        }
      ],
      "name": "UUPSUnsupportedProxiableUUID",
      "type": "error"
    },
    {
      "anonymous": false,
      "inputs": [
        {
          "indexed": false,
          "internalType": "uint64",
          "name": "version",
          "type": "uint64"
        }
      ],
      "name": "Initialized",
      "type": "event"
    },
    {
      "anonymous": false,
      "inputs": [
        {
          "indexed": true,
          "internalType": "uint256",
          "name": "id",
          "type": "uint256"
        },
        {
          "indexed": false,
          "internalType": "string",
          "name": "description",
          "type": "string"
        },
        {
          "indexed": false,
          "internalType": "enum MeluriDAO.PermissionType",
          "name": "permissionType",
          "type": "uint8"
        },
        {
          "indexed": false,
          "internalType": "uint256",
          "name": "targetTokenId",
          "type": "uint256"
        },
        {
          "indexed": false,
          "internalType": "uint256",
          "name": "endTime",
          "type": "uint256"
        }
      ],
      "name": "ProposalCreated",
      "type": "event"
    },
    {
      "anonymous": false,
      "inputs": [
        {
          "indexed": true,
          "internalType": "bytes32",
          "name": "role",
          "type": "bytes32"
        },
        {
          "indexed": true,
          "internalType": "bytes32",
          "name": "previousAdminRole",
          "type": "bytes32"
        },
        {
          "indexed": true,
          "internalType": "bytes32",
          "name": "newAdminRole",
          "type": "bytes32"
        }
      ],
      "name": "RoleAdminChanged",
      "type": "event"
    },
    {
      "anonymous": false,
      "inputs": [
        {
          "indexed": true,
          "internalType": "bytes32",
          "name": "role",
          "type": "bytes32"
        },
        {
          "indexed": true,
          "internalType": "address",
          "name": "account",
          "type": "address"
        },
        {
          "indexed": true,
          "internalType": "address",
          "name": "sender",
          "type": "address"
        }
      ],
      "name": "RoleGranted",
      "type": "event"
    },
    {
      "anonymous": false,
      "inputs": [
        {
          "indexed": true,
          "internalType": "bytes32",
          "name": "role",
          "type": "bytes32"
        },
        {
          "indexed": true,
          "internalType": "address",
          "name": "account",
          "type": "address"
        },
        {
          "indexed": true,
          "internalType": "address",
          "name": "sender",
          "type": "address"
        }
      ],
      "name": "RoleRevoked",
      "type": "event"
    },
    {
      "anonymous": false,
      "inputs": [
        {
          "indexed": true,
          "internalType": "address",
          "name": "implementation",
          "type": "address"
        }
      ],
      "name": "Upgraded",
      "type": "event"
    },
    {
      "anonymous": false,
      "inputs": [
        {
          "indexed": true,
          "internalType": "uint256",
          "name": "id",
          "type": "uint256"
        },
        {
          "indexed": true,
          "internalType": "address",
          "name": "voter",
          "type": "address"
        },
        {
          "indexed": false,
          "internalType": "bool",
          "name": "support",
          "type": "bool"
        }
      ],
      "name": "VoteCast",
      "type": "event"
    },
    {
      "inputs": [],
      "name": "ADMIN_ROLE",
      "outputs": [
        {
          "internalType": "bytes32",
          "name": "",
          "type": "bytes32"
        }
      ],
      "stateMutability": "view",
      "type": "function"
    },
    {
      "inputs": [],
      "name": "DEFAULT_ADMIN_ROLE",
      "outputs": [
        {
          "internalType": "bytes32",
          "name": "",
          "type": "bytes32"
        }
      ],
      "stateMutability": "view",
      "type": "function"
    },
    {
      "inputs": [],
      "name": "UPGRADER_ROLE",
      "outputs": [
        {
          "internalType": "bytes32",
          "name": "",
          "type": "bytes32"
        }
      ],
      "stateMutability": "view",
      "type": "function"
    },
    {
      "inputs": [],
      "name": "UPGRADE_INTERFACE_VERSION",
      "outputs": [
        {
          "internalType": "string",
          "name": "",
          "type": "string"
        }
      ],
      "stateMutability": "view",
      "type": "function"
    },
    {
      "inputs": [],
      "name": "complianceRegistry",
      "outputs": [
        {
          "internalType": "contract IComplianceRegistry",
          "name": "",
          "type": "address"
        }
      ],
      "stateMutability": "view",
      "type": "function"
    },
    {
      "inputs": [
        {
          "internalType": "string",
          "name": "_description",
          "type": "string"
        },
        {
          "internalType": "enum MeluriDAO.PermissionType",
          "name": "_permissionType",
          "type": "uint8"
        },
        {
          "internalType": "uint256",
          "name": "_targetTokenId",
          "type": "uint256"
        },
        {
          "internalType": "uint256",
          "name": "_durationSeconds",
          "type": "uint256"
        }
      ],
      "name": "createProposal",
      "outputs": [],
      "stateMutability": "nonpayable",
      "type": "function"
    },
    {
      "inputs": [
        {
          "internalType": "uint256",
          "name": "_proposalId",
          "type": "uint256"
        }
      ],
      "name": "getProposal",
      "outputs": [
        {
          "internalType": "string",
          "name": "description",
          "type": "string"
        },
        {
          "internalType": "enum MeluriDAO.PermissionType",
          "name": "permissionType",
          "type": "uint8"
        },
        {
          "internalType": "uint256",
          "name": "targetTokenId",
          "type": "uint256"
        },
        {
          "internalType": "uint256",
          "name": "yesVotes",
          "type": "uint256"
        },
        {
          "internalType": "uint256",
          "name": "noVotes",
          "type": "uint256"
        },
        {
          "internalType": "uint256",
          "name": "endTime",
          "type": "uint256"
        },
        {
          "internalType": "bool",
          "name": "active",
          "type": "bool"
        }
      ],
      "stateMutability": "view",
      "type": "function"
    },
    {
      "inputs": [
        {
          "internalType": "bytes32",
          "name": "role",
          "type": "bytes32"
        }
      ],
      "name": "getRoleAdmin",
      "outputs": [
        {
          "internalType": "bytes32",
          "name": "",
          "type": "bytes32"
        }
      ],
      "stateMutability": "view",
      "type": "function"
    },
    {
      "inputs": [
        {
          "internalType": "bytes32",
          "name": "role",
          "type": "bytes32"
        },
        {
          "internalType": "address",
          "name": "account",
          "type": "address"
        }
      ],
      "name": "grantRole",
      "outputs": [],
      "stateMutability": "nonpayable",
      "type": "function"
    },
    {
      "inputs": [
        {
          "internalType": "bytes32",
          "name": "role",
          "type": "bytes32"
        },
        {
          "internalType": "address",
          "name": "account",
          "type": "address"
        }
      ],
      "name": "hasRole",
      "outputs": [
        {
          "internalType": "bool",
          "name": "",
          "type": "bool"
        }
      ],
      "stateMutability": "view",
      "type": "function"
    },
    {
      "inputs": [
        {
          "internalType": "address",
          "name": "_admin",
          "type": "address"
        },
        {
          "internalType": "address",
          "name": "_complianceRegistry",
          "type": "address"
        },
        {
          "internalType": "address",
          "name": "_realEstateToken",
          "type": "address"
        }
      ],
      "name": "initialize",
      "outputs": [],
      "stateMutability": "nonpayable",
      "type": "function"
    },
    {
      "inputs": [],
      "name": "nextProposalId",
      "outputs": [
        {
          "internalType": "uint256",
          "name": "",
          "type": "uint256"
        }
      ],
      "stateMutability": "view",
      "type": "function"
    },
    {
      "inputs": [
        {
          "internalType": "uint256",
          "name": "",
          "type": "uint256"
        }
      ],
      "name": "proposals",
      "outputs": [
        {
          "internalType": "uint256",
          "name": "id",
          "type": "uint256"
        },
        {
          "internalType": "string",
          "name": "description",
          "type": "string"
        },
        {
          "internalType": "enum MeluriDAO.PermissionType",
          "name": "permissionType",
          "type": "uint8"
        },
        {
          "internalType": "uint256",
          "name": "targetTokenId",
          "type": "uint256"
        },
        {
          "internalType": "uint256",
          "name": "startTime",
          "type": "uint256"
        },
        {
          "internalType": "uint256",
          "name": "endTime",
          "type": "uint256"
        },
        {
          "internalType": "uint256",
          "name": "yesVotes",
          "type": "uint256"
        },
        {
          "internalType": "uint256",
          "name": "noVotes",
          "type": "uint256"
        },
        {
          "internalType": "bool",
          "name": "active",
          "type": "bool"
        }
      ],
      "stateMutability": "view",
      "type": "function"
    },
    {
      "inputs": [],
      "name": "proxiableUUID",
      "outputs": [
        {
          "internalType": "bytes32",
          "name": "",
          "type": "bytes32"
        }
      ],
      "stateMutability": "view",
      "type": "function"
    },
    {
      "inputs": [],
      "name": "realEstateToken",
      "outputs": [
        {
          "internalType": "contract IRealEstateToken",
          "name": "",
          "type": "address"
        }
      ],
      "stateMutability": "view",
      "type": "function"
    },
    {
      "inputs": [
        {
          "internalType": "bytes32",
          "name": "role",
          "type": "bytes32"
        },
        {
          "internalType": "address",
          "name": "callerConfirmation",
          "type": "address"
        }
      ],
      "name": "renounceRole",
      "outputs": [],
      "stateMutability": "nonpayable",
      "type": "function"
    },
    {
      "inputs": [
        {
          "internalType": "bytes32",
          "name": "role",
          "type": "bytes32"
        },
        {
          "internalType": "address",
          "name": "account",
          "type": "address"
        }
      ],
      "name": "revokeRole",
      "outputs": [],
      "stateMutability": "nonpayable",
      "type": "function"
    },
    {
      "inputs": [
        {
          "internalType": "bytes4",
          "name": "interfaceId",
          "type": "bytes4"
        }
      ],
      "name": "supportsInterface",
      "outputs": [
        {
          "internalType": "bool",
          "name": "",
          "type": "bool"
        }
      ],
      "stateMutability": "view",
      "type": "function"
    },
    {
      "inputs": [
        {
          "internalType": "address",
          "name": "newImplementation",
          "type": "address"
        },
        {
          "internalType": "bytes",
          "name": "data",
          "type": "bytes"
        }
      ],
      "name": "upgradeToAndCall",
      "outputs": [],
      "stateMutability": "payable",
      "type": "function"
    },
    {
      "inputs": [
        {
          "internalType": "uint256",
          "name": "_proposalId",
          "type": "uint256"
        },
        {
          "internalType": "bool",
          "name": "_support",
          "type": "bool"
        }
      ],
      "name": "vote",
      "outputs": [],
      "stateMutability": "nonpayable",
      "type": "function"
    }
  ],
  "bytecode": "0x60a06040523060805234801561001457600080fd5b5061001d610022565b6100d4565b7ff0c57e16840df040f15088dc2f81fe391c3923bec73e23a9662efc9c229c6a00805468010000000000000000900460ff16156100725760405163f92ee8a960e01b815260040160405180910390fd5b80546001600160401b03908116146100d15780546001600160401b0319166001600160401b0390811782556040519081527fc7f505b2f371ae2175ee4913f4499e1f2633a7b5936321eed1cdaeb6115181d29060200160405180910390a15b50565b608051611a296100fd60003960008181610f7b01528181610fa401526111090152611a296000f3fe60806040526004361061011f5760003560e01c806391d14854116100a0578063c9d27afe11610064578063c9d27afe1461035a578063cac89c5c1461037a578063d4e9f951146103b2578063d547741f146103d2578063f72c0d8b146103f257600080fd5b806391d1485414610294578063a217fddf146102b4578063ad3cb1cc146102c9578063c0c53b8b14610307578063c7f758a81461032757600080fd5b80632f2ff15d116100e75780632f2ff15d146101f857806336568abe146102185780634f1ef2861461023857806352d1902d1461024b57806375b238fc1461026057600080fd5b8063013cf08b1461012457806301ffc9a714610162578063170509dd14610192578063248a9ca3146101b45780632ab09d14146101e2575b600080fd5b34801561013057600080fd5b5061014461013f3660046113c7565b610426565b60405161015999989796959493929190611468565b60405180910390f35b34801561016e57600080fd5b5061018261017d3660046114c7565b6104fe565b6040519015158152602001610159565b34801561019e57600080fd5b506101b26101ad3660046114f1565b610535565b005b3480156101c057600080fd5b506101d46101cf3660046113c7565b610693565b604051908152602001610159565b3480156101ee57600080fd5b506101d460025481565b34801561020457600080fd5b506101b26102133660046115a4565b6106b5565b34801561022457600080fd5b506101b26102333660046115a4565b6106d7565b6101b26102463660046115e6565b61070f565b34801561025757600080fd5b506101d461072e565b34801561026c57600080fd5b506101d47fa49807205ce4d355092ef5a8a18f56e8913cf4a201fbe287825b095693c2177581565b3480156102a057600080fd5b506101826102af3660046115a4565b61074b565b3480156102c057600080fd5b506101d4600081565b3480156102d557600080fd5b506102fa604051806040016040528060058152602001640352e302e360dc1b81525081565b60405161015991906116a8565b34801561031357600080fd5b506101b26103223660046116bb565b610783565b34801561033357600080fd5b506103476103423660046113c7565b61091d565b60405161015997969594939291906116fe565b34801561036657600080fd5b506101b2610375366004611759565b610a21565b34801561038657600080fd5b5060005461039a906001600160a01b031681565b6040516001600160a01b039091168152602001610159565b3480156103be57600080fd5b5060015461039a906001600160a01b031681565b3480156103de57600080fd5b506101b26103ed3660046115a4565b610e26565b3480156103fe57600080fd5b506101d47f189ab7a9244df0848122154315af71fe140f3db0fe014031783b0946b8c9d2e381565b6003602052600090815260409020805460018201805491929161044890611789565b80601f016020809104026020016040519081016040528092919081815260200182805461047490611789565b80156104c15780601f10610496576101008083540402835291602001916104c1565b820191906000526020600020905b8154815290600101906020018083116104a457829003601f168201915b505050600284015460038501546004860154600587015460068801546007890154600890990154979860ff95861698949750929550909390921689565b60006001600160e01b03198216637965db0b60e01b148061052f57506301ffc9a760e01b6001600160e01b03198316145b92915050565b7fa49807205ce4d355092ef5a8a18f56e8913cf4a201fbe287825b095693c2177561055f81610e42565b600082116105b45760405162461bcd60e51b815260206004820152601960248201527f4475726174696f6e206d75737420626520706f7369746976650000000000000060448201526064015b60405180910390fd5b60028054600091826105c5836117d9565b909155506000818152600360205260409020818155909150600181016105ec888a83611842565b50858160020160006101000a81548160ff0219169083600281111561061357610613611430565b0217905550600381018590554260048201819055610632908590611903565b6005820181905560088201805460ff1916600117905560405183917f1c38532e2a72f74cc8cdbad631b618ec016b2e4c26ce6e377bd8da0b82c2482f91610681918c918c918c918c9190611916565b60405180910390a25050505050505050565b60009081526000805160206119d4833981519152602052604090206001015490565b6106be82610693565b6106c781610e42565b6106d18383610e4f565b50505050565b6001600160a01b03811633146107005760405163334bd91960e11b815260040160405180910390fd5b61070a8282610ef4565b505050565b610717610f70565b61072082611017565b61072a8282611041565b5050565b60006107386110fe565b506000805160206119b483398151915290565b60009182526000805160206119d4833981519152602090815260408084206001600160a01b0393909316845291905290205460ff1690565b600061078d611147565b805490915060ff600160401b820416159067ffffffffffffffff166000811580156107b55750825b905060008267ffffffffffffffff1660011480156107d25750303b155b9050811580156107e0575080155b156107fe5760405163f92ee8a960e01b815260040160405180910390fd5b845467ffffffffffffffff19166001178555831561082857845460ff60401b1916600160401b1785555b610830611170565b610838611170565b610843600089610e4f565b5061086e7fa49807205ce4d355092ef5a8a18f56e8913cf4a201fbe287825b095693c2177589610e4f565b506108997f189ab7a9244df0848122154315af71fe140f3db0fe014031783b0946b8c9d2e389610e4f565b50600080546001600160a01b03808a166001600160a01b0319928316179092556001805492891692909116919091178155600255831561091357845460ff60401b19168555604051600181527fc7f505b2f371ae2175ee4913f4499e1f2633a7b5936321eed1cdaeb6115181d29060200160405180910390a15b5050505050505050565b60606000806000806000806000600360008a81526020019081526020016000209050806001018160020160009054906101000a900460ff1682600301548360060154846007015485600501548660080160009054906101000a900460ff1686805461098790611789565b80601f01602080910402602001604051908101604052809291908181526020018280546109b390611789565b8015610a005780601f106109d557610100808354040283529160200191610a00565b820191906000526020600020905b8154815290600101906020018083116109e357829003601f168201915b50505050509650975097509750975097509750975050919395979092949650565b6000828152600360205260409020600881015460ff16610a795760405162461bcd60e51b815260206004820152601360248201527250726f706f73616c206e6f742061637469766560681b60448201526064016105ab565b8060050154421115610abc5760405162461bcd60e51b815260206004820152600c60248201526b159bdd1a5b99c8195b99195960a21b60448201526064016105ab565b33600090815260098201602052604090205460ff1615610b0e5760405162461bcd60e51b815260206004820152600d60248201526c105b1c9958591e481d9bdd1959609a1b60448201526064016105ab565b60005460405163b9209e3360e01b81523360048201526001600160a01b039091169063b9209e3390602401602060405180830381865afa158015610b56573d6000803e3d6000fd5b505050506040513d601f19601f82011682018060405250810190610b7a9190611961565b610bc65760405162461bcd60e51b815260206004820152601760248201527f43616c6c6572206e6f74204b594320766572696669656400000000000000000060448201526064016105ab565b600160028083015460ff1690811115610be157610be1611430565b03610caf57600154604051631065ad5360e11b81523360048201526000916001600160a01b0316906320cb5aa690602401602060405180830381865afa158015610c2f573d6000803e3d6000fd5b505050506040513d601f19601f82011682018060405250810190610c53919061197e565b11610caa5760405162461bcd60e51b815260206004820152602160248201527f4d757374207361746973667920416e79496e766573746f7220637269746572696044820152606160f81b60648201526084016105ab565b610d92565b60028181015460ff1681811115610cc857610cc8611430565b03610d92576001546003820154604051627eeac760e11b815233600482015260248101919091526000916001600160a01b03169062fdd58e90604401602060405180830381865afa158015610d21573d6000803e3d6000fd5b505050506040513d601f19601f82011682018060405250810190610d45919061197e565b11610d925760405162461bcd60e51b815260206004820152601860248201527f4d75737420686f6c6420737065636966696320746f6b656e000000000000000060448201526064016105ab565b3360009081526009820160205260409020805460ff191660011790558115610dd057600681018054906000610dc6836117d9565b9190505550610de8565b600781018054906000610de2836117d9565b91905055505b6040518215158152339084907fe71fcdac32df1877c1700e7bda2a03157e20993363a28fc35ac495cefc76e4d49060200160405180910390a3505050565b610e2f82610693565b610e3881610e42565b6106d18383610ef4565b610e4c8133611178565b50565b60006000805160206119d4833981519152610e6a848461074b565b610eea576000848152602082815260408083206001600160a01b03871684529091529020805460ff19166001179055610ea03390565b6001600160a01b0316836001600160a01b0316857f2f8788117e7eff1d82e926ec794901d17c78024a50270940304540a733656f0d60405160405180910390a4600191505061052f565b600091505061052f565b60006000805160206119d4833981519152610f0f848461074b565b15610eea576000848152602082815260408083206001600160a01b0387168085529252808320805460ff1916905551339287917ff6391f5c32d9c69d2a47ea670b442974b53935d1edc7fd64eb21e047a839171b9190a4600191505061052f565b306001600160a01b037f0000000000000000000000000000000000000000000000000000000000000000161480610ff757507f00000000000000000000000000000000000000000000000000000000000000006001600160a01b0316610feb6000805160206119b4833981519152546001600160a01b031690565b6001600160a01b031614155b156110155760405163703e46dd60e11b815260040160405180910390fd5b565b7f189ab7a9244df0848122154315af71fe140f3db0fe014031783b0946b8c9d2e361072a81610e42565b816001600160a01b03166352d1902d6040518163ffffffff1660e01b8152600401602060405180830381865afa92505050801561109b575060408051601f3d908101601f191682019092526110989181019061197e565b60015b6110c357604051634c9c8ce360e01b81526001600160a01b03831660048201526024016105ab565b6000805160206119b483398151915281146110f457604051632a87526960e21b8152600481018290526024016105ab565b61070a83836111b1565b306001600160a01b037f000000000000000000000000000000000000000000000000000000000000000016146110155760405163703e46dd60e11b815260040160405180910390fd5b6000807ff0c57e16840df040f15088dc2f81fe391c3923bec73e23a9662efc9c229c6a0061052f565b611015611207565b611182828261074b565b61072a5760405163e2517d3f60e01b81526001600160a01b0382166004820152602481018390526044016105ab565b6111ba8261122c565b6040516001600160a01b038316907fbc7cd75a20ee27fd9adebab32041f755214dbc6bffa90cc0225b39da2e5c2d3b90600090a28051156111ff5761070a8282611291565b61072a611307565b61120f611326565b61101557604051631afcd79f60e31b815260040160405180910390fd5b806001600160a01b03163b60000361126257604051634c9c8ce360e01b81526001600160a01b03821660048201526024016105ab565b6000805160206119b483398151915280546001600160a01b0319166001600160a01b0392909216919091179055565b6060600080846001600160a01b0316846040516112ae9190611997565b600060405180830381855af49150503d80600081146112e9576040519150601f19603f3d011682016040523d82523d6000602084013e6112ee565b606091505b50915091506112fe858383611340565b95945050505050565b34156110155760405163b398979f60e01b815260040160405180910390fd5b6000611330611147565b54600160401b900460ff16919050565b606082611355576113508261139f565b611398565b815115801561136c57506001600160a01b0384163b155b1561139557604051639996b31560e01b81526001600160a01b03851660048201526024016105ab565b50805b9392505050565b8051156113ae57805160208201fd5b60405163d6bda27560e01b815260040160405180910390fd5b6000602082840312156113d957600080fd5b5035919050565b60005b838110156113fb5781810151838201526020016113e3565b50506000910152565b6000815180845261141c8160208601602086016113e0565b601f01601f19169290920160200192915050565b634e487b7160e01b600052602160045260246000fd5b6003811061146457634e487b7160e01b600052602160045260246000fd5b9052565b60006101208b83528060208401526114828184018c611404565b915050611492604083018a611446565b8760608301528660808301528560a08301528460c08301528360e08301528215156101008301529a9950505050505050505050565b6000602082840312156114d957600080fd5b81356001600160e01b03198116811461139857600080fd5b60008060008060006080868803121561150957600080fd5b853567ffffffffffffffff8082111561152157600080fd5b818801915088601f83011261153557600080fd5b81358181111561154457600080fd5b89602082850101111561155657600080fd5b602092830197509550508601356003811061157057600080fd5b94979396509394604081013594506060013592915050565b80356001600160a01b038116811461159f57600080fd5b919050565b600080604083850312156115b757600080fd5b823591506115c760208401611588565b90509250929050565b634e487b7160e01b600052604160045260246000fd5b600080604083850312156115f957600080fd5b61160283611588565b9150602083013567ffffffffffffffff8082111561161f57600080fd5b818501915085601f83011261163357600080fd5b813581811115611645576116456115d0565b604051601f8201601f19908116603f0116810190838211818310171561166d5761166d6115d0565b8160405282815288602084870101111561168657600080fd5b8260208601602083013760006020848301015280955050505050509250929050565b6020815260006113986020830184611404565b6000806000606084860312156116d057600080fd5b6116d984611588565b92506116e760208501611588565b91506116f560408501611588565b90509250925092565b60e08152600061171160e083018a611404565b90506117206020830189611446565b60408201969096526060810194909452608084019290925260a0830152151560c09091015292915050565b8015158114610e4c57600080fd5b6000806040838503121561176c57600080fd5b82359150602083013561177e8161174b565b809150509250929050565b600181811c9082168061179d57607f821691505b6020821081036117bd57634e487b7160e01b600052602260045260246000fd5b50919050565b634e487b7160e01b600052601160045260246000fd5b6000600182016117eb576117eb6117c3565b5060010190565b601f82111561070a576000816000526020600020601f850160051c8101602086101561181b5750805b601f850160051c820191505b8181101561183a57828155600101611827565b505050505050565b67ffffffffffffffff83111561185a5761185a6115d0565b61186e836118688354611789565b836117f2565b6000601f8411600181146118a2576000851561188a5750838201355b600019600387901b1c1916600186901b1783556118fc565b600083815260209020601f19861690835b828110156118d357868501358255602094850194600190920191016118b3565b50868210156118f05760001960f88860031b161c19848701351681555b505060018560011b0183555b5050505050565b8082018082111561052f5761052f6117c3565b60808152846080820152848660a0830137600060a08683010152600060a0601f19601f880116830101905061194e6020830186611446565b6040820193909352606001529392505050565b60006020828403121561197357600080fd5b81516113988161174b565b60006020828403121561199057600080fd5b5051919050565b600082516119a98184602087016113e0565b919091019291505056fe360894a13ba1a3210667c828492db98dca3e2076cc3735a920a3ca505d382bbc02dd7bc7dec4dceedda775e58dd541e08a116c6c53815c0bd028192f7b626800a26469706673582212200d2805b52d7ab237e7e7ec50cab8ff4fbfe93723dd30ec1b628affd6a823d55664736f6c63430008160033",
  "linkReferences": {},
  "deployedLinkReferences": {}
}