{
  "_format": "hh-sol-artifact-1",
  "contractName": "PropertiesRegistry",
  "sourceName": "contracts/PropertiesRegistry.sol",
  "abi": [
    {
      "inputs": [],
      "stateMutability": "nonpayable",
      "type": "constructor"
    },
    {
      "inputs": [],
      "name": "AccessControlBadConfirmation",
      "type": "error"
    },
    {
      "inputs": [
        {
          "internalType": "address",
          "name": "account",
          "type": "address"
        },
        {
          "internalType": "bytes32",
          "name": "neededRole",
          "type": "bytes32"
        }
      ],
      "name": "AccessControlUnauthorizedAccount",
      "type": "error"
    },
    {
      "inputs": [
        {
          "internalType": "address",
          "name": "target",
          "type": "address"
        }
      ],
      "name": "AddressEmptyCode",
      "type": "error"
    },
    {
      "inputs": [
        {
          "internalType": "address",
          "name": "implementation",
          "type": "address"
        }
      ],
      "name": "ERC1967InvalidImplementation",
      "type": "error"
    },
    {
      "inputs": [],
      "name": "ERC1967NonPayable",
      "type": "error"
    },
    {
      "inputs": [],
      "name": "FailedCall",
      "type": "error"
    },
    {
      "inputs": [],
      "name": "InvalidInitialization",
      "type": "error"
    },
    {
      "inputs": [],
      "name": "NotInitializing",
      "type": "error"
    },
    {
      "inputs": [],
      "name": "UUPSUnauthorizedCallContext",
      "type": "error"
    },
    {
      "inputs": [
        {
          "internalType": "bytes32",
          "name": "slot",
          "type": "bytes32"
        }
      ],
      "name": "UUPSUnsupportedProxiableUUID",
      "type": "error"
    },
    {
      "anonymous": false,
      "inputs": [
        {
          "indexed": false,
          "internalType": "uint64",
          "name": "version",
          "type": "uint64"
        }
      ],
      "name": "Initialized",
      "type": "event"
    },
    {
      "anonymous": false,
      "inputs": [
        {
          "indexed": true,
          "internalType": "uint256",
          "name": "tokenId",
          "type": "uint256"
        },
        {
          "indexed": false,
          "internalType": "string",
          "name": "name",
          "type": "string"
        },
        {
          "indexed": false,
          "internalType": "uint256",
          "name": "targetRaise",
          "type": "uint256"
        }
      ],
      "name": "PropertyRegistered",
      "type": "event"
    },
    {
      "anonymous": false,
      "inputs": [
        {
          "indexed": true,
          "internalType": "uint256",
          "name": "tokenId",
          "type": "uint256"
        },
        {
          "indexed": false,
          "internalType": "uint256",
          "name": "valuation",
          "type": "uint256"
        }
      ],
      "name": "PropertyUpdated",
      "type": "event"
    },
    {
      "anonymous": false,
      "inputs": [
        {
          "indexed": true,
          "internalType": "bytes32",
          "name": "role",
          "type": "bytes32"
        },
        {
          "indexed": true,
          "internalType": "bytes32",
          "name": "previousAdminRole",
          "type": "bytes32"
        },
        {
          "indexed": true,
          "internalType": "bytes32",
          "name": "newAdminRole",
          "type": "bytes32"
        }
      ],
      "name": "RoleAdminChanged",
      "type": "event"
    },
    {
      "anonymous": false,
      "inputs": [
        {
          "indexed": true,
          "internalType": "bytes32",
          "name": "role",
          "type": "bytes32"
        },
        {
          "indexed": true,
          "internalType": "address",
          "name": "account",
          "type": "address"
        },
        {
          "indexed": true,
          "internalType": "address",
          "name": "sender",
          "type": "address"
        }
      ],
      "name": "RoleGranted",
      "type": "event"
    },
    {
      "anonymous": false,
      "inputs": [
        {
          "indexed": true,
          "internalType": "bytes32",
          "name": "role",
          "type": "bytes32"
        },
        {
          "indexed": true,
          "internalType": "address",
          "name": "account",
          "type": "address"
        },
        {
          "indexed": true,
          "internalType": "address",
          "name": "sender",
          "type": "address"
        }
      ],
      "name": "RoleRevoked",
      "type": "event"
    },
    {
      "anonymous": false,
      "inputs": [
        {
          "indexed": true,
          "internalType": "address",
          "name": "implementation",
          "type": "address"
        }
      ],
      "name": "Upgraded",
      "type": "event"
    },
    {
      "inputs": [],
      "name": "ASSET_MANAGER_ROLE",
      "outputs": [
        {
          "internalType": "bytes32",
          "name": "",
          "type": "bytes32"
        }
      ],
      "stateMutability": "view",
      "type": "function"
    },
    {
      "inputs": [],
      "name": "DEFAULT_ADMIN_ROLE",
      "outputs": [
        {
          "internalType": "bytes32",
          "name": "",
          "type": "bytes32"
        }
      ],
      "stateMutability": "view",
      "type": "function"
    },
    {
      "inputs": [],
      "name": "UPGRADER_ROLE",
      "outputs": [
        {
          "internalType": "bytes32",
          "name": "",
          "type": "bytes32"
        }
      ],
      "stateMutability": "view",
      "type": "function"
    },
    {
      "inputs": [],
      "name": "UPGRADE_INTERFACE_VERSION",
      "outputs": [
        {
          "internalType": "string",
          "name": "",
          "type": "string"
        }
      ],
      "stateMutability": "view",
      "type": "function"
    },
    {
      "inputs": [
        {
          "internalType": "uint256",
          "name": "_tokenId",
          "type": "uint256"
        }
      ],
      "name": "getProperty",
      "outputs": [
        {
          "components": [
            {
              "internalType": "string",
              "name": "name",
              "type": "string"
            },
            {
              "internalType": "string",
              "name": "location",
              "type": "string"
            },
            {
              "internalType": "string",
              "name": "documentIPFS",
              "type": "string"
            },
            {
              "internalType": "uint256",
              "name": "valuation",
              "type": "uint256"
            },
            {
              "internalType": "uint256",
              "name": "targetRaise",
              "type": "uint256"
            },
            {
              "internalType": "uint256",
              "name": "totalTokens",
              "type": "uint256"
            },
            {
              "internalType": "bool",
              "name": "isActive",
              "type": "bool"
            }
          ],
          "internalType": "struct PropertiesRegistry.Property",
          "name": "",
          "type": "tuple"
        }
      ],
      "stateMutability": "view",
      "type": "function"
    },
    {
      "inputs": [
        {
          "internalType": "bytes32",
          "name": "role",
          "type": "bytes32"
        }
      ],
      "name": "getRoleAdmin",
      "outputs": [
        {
          "internalType": "bytes32",
          "name": "",
          "type": "bytes32"
        }
      ],
      "stateMutability": "view",
      "type": "function"
    },
    {
      "inputs": [
        {
          "internalType": "bytes32",
          "name": "role",
          "type": "bytes32"
        },
        {
          "internalType": "address",
          "name": "account",
          "type": "address"
        }
      ],
      "name": "grantRole",
      "outputs": [],
      "stateMutability": "nonpayable",
      "type": "function"
    },
    {
      "inputs": [
        {
          "internalType": "bytes32",
          "name": "role",
          "type": "bytes32"
        },
        {
          "internalType": "address",
          "name": "account",
          "type": "address"
        }
      ],
      "name": "hasRole",
      "outputs": [
        {
          "internalType": "bool",
          "name": "",
          "type": "bool"
        }
      ],
      "stateMutability": "view",
      "type": "function"
    },
    {
      "inputs": [
        {
          "internalType": "address",
          "name": "defaultAdmin",
          "type": "address"
        }
      ],
      "name": "initialize",
      "outputs": [],
      "stateMutability": "nonpayable",
      "type": "function"
    },
    {
      "inputs": [],
      "name": "nextTokenId",
      "outputs": [
        {
          "internalType": "uint256",
          "name": "",
          "type": "uint256"
        }
      ],
      "stateMutability": "view",
      "type": "function"
    },
    {
      "inputs": [
        {
          "internalType": "uint256",
          "name": "",
          "type": "uint256"
        }
      ],
      "name": "properties",
      "outputs": [
        {
          "internalType": "string",
          "name": "name",
          "type": "string"
        },
        {
          "internalType": "string",
          "name": "location",
          "type": "string"
        },
        {
          "internalType": "string",
          "name": "documentIPFS",
          "type": "string"
        },
        {
          "internalType": "uint256",
          "name": "valuation",
          "type": "uint256"
        },
        {
          "internalType": "uint256",
          "name": "targetRaise",
          "type": "uint256"
        },
        {
          "internalType": "uint256",
          "name": "totalTokens",
          "type": "uint256"
        },
        {
          "internalType": "bool",
          "name": "isActive",
          "type": "bool"
        }
      ],
      "stateMutability": "view",
      "type": "function"
    },
    {
      "inputs": [],
      "name": "proxiableUUID",
      "outputs": [
        {
          "internalType": "bytes32",
          "name": "",
          "type": "bytes32"
        }
      ],
      "stateMutability": "view",
      "type": "function"
    },
    {
      "inputs": [
        {
          "internalType": "string",
          "name": "_name",
          "type": "string"
        },
        {
          "internalType": "string",
          "name": "_location",
          "type": "string"
        },
        {
          "internalType": "string",
          "name": "_documentIPFS",
          "type": "string"
        },
        {
          "internalType": "uint256",
          "name": "_valuation",
          "type": "uint256"
        },
        {
          "internalType": "uint256",
          "name": "_targetRaise",
          "type": "uint256"
        },
        {
          "internalType": "uint256",
          "name": "_totalTokens",
          "type": "uint256"
        }
      ],
      "name": "registerProperty",
      "outputs": [
        {
          "internalType": "uint256",
          "name": "",
          "type": "uint256"
        }
      ],
      "stateMutability": "nonpayable",
      "type": "function"
    },
    {
      "inputs": [
        {
          "internalType": "bytes32",
          "name": "role",
          "type": "bytes32"
        },
        {
          "internalType": "address",
          "name": "callerConfirmation",
          "type": "address"
        }
      ],
      "name": "renounceRole",
      "outputs": [],
      "stateMutability": "nonpayable",
      "type": "function"
    },
    {
      "inputs": [
        {
          "internalType": "bytes32",
          "name": "role",
          "type": "bytes32"
        },
        {
          "internalType": "address",
          "name": "account",
          "type": "address"
        }
      ],
      "name": "revokeRole",
      "outputs": [],
      "stateMutability": "nonpayable",
      "type": "function"
    },
    {
      "inputs": [
        {
          "internalType": "bytes4",
          "name": "interfaceId",
          "type": "bytes4"
        }
      ],
      "name": "supportsInterface",
      "outputs": [
        {
          "internalType": "bool",
          "name": "",
          "type": "bool"
        }
      ],
      "stateMutability": "view",
      "type": "function"
    },
    {
      "inputs": [
        {
          "internalType": "uint256",
          "name": "_tokenId",
          "type": "uint256"
        },
        {
          "internalType": "uint256",
          "name": "_newValuation",
          "type": "uint256"
        }
      ],
      "name": "updateValuation",
      "outputs": [],
      "stateMutability": "nonpayable",
      "type": "function"
    },
    {
      "inputs": [
        {
          "internalType": "address",
          "name": "newImplementation",
          "type": "address"
        },
        {
          "internalType": "bytes",
          "name": "data",
          "type": "bytes"
        }
      ],
      "name": "upgradeToAndCall",
      "outputs": [],
      "stateMutability": "payable",
      "type": "function"
    }
  ],
  "bytecode": "0x60a06040523060805234801561001457600080fd5b5061001d610022565b6100d4565b7ff0c57e16840df040f15088dc2f81fe391c3923bec73e23a9662efc9c229c6a00805468010000000000000000900460ff16156100725760405163f92ee8a960e01b815260040160405180910390fd5b80546001600160401b03908116146100d15780546001600160401b0319166001600160401b0390811782556040519081527fc7f505b2f371ae2175ee4913f4499e1f2633a7b5936321eed1cdaeb6115181d29060200160405180910390a15b50565b6080516117936100fd60003960008181610d1d01528181610d460152610eb001526117936000f3fe6080604052600436106101095760003560e01c806391d1485411610095578063c4d66de811610064578063c4d66de8146102d3578063cc06a31c146102f3578063d547741f14610313578063f72c0d8b14610333578063f7b108081461036757600080fd5b806391d148541461023e578063a217fddf1461025e578063a4b32de814610273578063ad3cb1cc1461029557600080fd5b806336568abe116100dc57806336568abe146101c05780634f1ef286146101e057806352d1902d146101f35780636dc0fc6b1461020857806375794a3c1461022857600080fd5b806301ffc9a71461010e578063248a9ca3146101435780632f2ff15d1461017157806332665ffb14610193575b600080fd5b34801561011a57600080fd5b5061012e61012936600461116e565b61039a565b60405190151581526020015b60405180910390f35b34801561014f57600080fd5b5061016361015e366004611198565b6103d1565b60405190815260200161013a565b34801561017d57600080fd5b5061019161018c3660046111cd565b6103f3565b005b34801561019f57600080fd5b506101b36101ae366004611198565b610415565b60405161013a9190611249565b3480156101cc57600080fd5b506101916101db3660046111cd565b610659565b6101916101ee366004611365565b610691565b3480156101ff57600080fd5b506101636106b0565b34801561021457600080fd5b506101916102233660046113c7565b6106cd565b34801561023457600080fd5b5061016360015481565b34801561024a57600080fd5b5061012e6102593660046111cd565b610732565b34801561026a57600080fd5b50610163600081565b34801561027f57600080fd5b5061016360008051602061171e83398151915281565b3480156102a157600080fd5b506102c6604051806040016040528060058152602001640352e302e360dc1b81525081565b60405161013a91906113e9565b3480156102df57600080fd5b506101916102ee3660046113fc565b61076a565b3480156102ff57600080fd5b5061016361030e366004611437565b6108c1565b34801561031f57600080fd5b5061019161032e3660046111cd565b6109f2565b34801561033f57600080fd5b506101637f189ab7a9244df0848122154315af71fe140f3db0fe014031783b0946b8c9d2e381565b34801561037357600080fd5b50610387610382366004611198565b610a0e565b60405161013a97969594939291906114db565b60006001600160e01b03198216637965db0b60e01b14806103cb57506301ffc9a760e01b6001600160e01b03198316145b92915050565b600090815260008051602061173e833981519152602052604090206001015490565b6103fc826103d1565b61040581610be4565b61040f8383610bf1565b50505050565b6104576040518060e001604052806060815260200160608152602001606081526020016000815260200160008152602001600081526020016000151581525090565b60008281526020819052604090819020815160e0810190925280548290829061047f9061153d565b80601f01602080910402602001604051908101604052809291908181526020018280546104ab9061153d565b80156104f85780601f106104cd576101008083540402835291602001916104f8565b820191906000526020600020905b8154815290600101906020018083116104db57829003601f168201915b505050505081526020016001820180546105119061153d565b80601f016020809104026020016040519081016040528092919081815260200182805461053d9061153d565b801561058a5780601f1061055f5761010080835404028352916020019161058a565b820191906000526020600020905b81548152906001019060200180831161056d57829003601f168201915b505050505081526020016002820180546105a39061153d565b80601f01602080910402602001604051908101604052809291908181526020018280546105cf9061153d565b801561061c5780601f106105f15761010080835404028352916020019161061c565b820191906000526020600020905b8154815290600101906020018083116105ff57829003601f168201915b505050918352505060038201546020820152600482015460408201526005820154606082015260069091015460ff16151560809091015292915050565b6001600160a01b03811633146106825760405163334bd91960e11b815260040160405180910390fd5b61068c8282610c96565b505050565b610699610d12565b6106a282610db9565b6106ac8282610de3565b5050565b60006106ba610ea5565b506000805160206116fe83398151915290565b60008051602061171e8339815191526106e581610be4565b60008381526020818152604091829020600301849055905183815284917fe4b8b752c312e0e6d917ac8200d0e301b42d16b31e96022ccef48068a282646a910160405180910390a2505050565b600091825260008051602061173e833981519152602090815260408084206001600160a01b0393909316845291905290205460ff1690565b6000610774610eee565b805490915060ff600160401b820416159067ffffffffffffffff1660008115801561079c5750825b905060008267ffffffffffffffff1660011480156107b95750303b155b9050811580156107c7575080155b156107e55760405163f92ee8a960e01b815260040160405180910390fd5b845467ffffffffffffffff19166001178555831561080f57845460ff60401b1916600160401b1785555b610817610f17565b61081f610f17565b61082a600087610bf1565b5061084360008051602061171e83398151915287610bf1565b5061086e7f189ab7a9244df0848122154315af71fe140f3db0fe014031783b0946b8c9d2e387610bf1565b506001805583156108b957845460ff60401b19168555604051600181527fc7f505b2f371ae2175ee4913f4499e1f2633a7b5936321eed1cdaeb6115181d29060200160405180910390a15b505050505050565b600060008051602061171e8339815191526108db81610be4565b60018054600091826108ec83611577565b909155506040805160e0810182528b815260208082018c90528183018b9052606082018a90526080820189905260a08201889052600160c08301526000848152908190529190912081519293509091819061094790826115e6565b506020820151600182019061095c90826115e6565b506040820151600282019061097190826115e6565b50606082015160038201556080820151600482015560a0820151600582015560c0909101516006909101805460ff191691151591909117905560405181907fc73cdf5af0001bae2503c8b9ec29e1227559c9253f18df3a2a0a85c84dd1ddc9906109de908c9089906116a6565b60405180910390a298975050505050505050565b6109fb826103d1565b610a0481610be4565b61040f8383610c96565b600060208190529081526040902080548190610a299061153d565b80601f0160208091040260200160405190810160405280929190818152602001828054610a559061153d565b8015610aa25780601f10610a7757610100808354040283529160200191610aa2565b820191906000526020600020905b815481529060010190602001808311610a8557829003601f168201915b505050505090806001018054610ab79061153d565b80601f0160208091040260200160405190810160405280929190818152602001828054610ae39061153d565b8015610b305780601f10610b0557610100808354040283529160200191610b30565b820191906000526020600020905b815481529060010190602001808311610b1357829003601f168201915b505050505090806002018054610b459061153d565b80601f0160208091040260200160405190810160405280929190818152602001828054610b719061153d565b8015610bbe5780601f10610b9357610100808354040283529160200191610bbe565b820191906000526020600020905b815481529060010190602001808311610ba157829003601f168201915b505050506003830154600484015460058501546006909501549394919390925060ff1687565b610bee8133610f1f565b50565b600060008051602061173e833981519152610c0c8484610732565b610c8c576000848152602082815260408083206001600160a01b03871684529091529020805460ff19166001179055610c423390565b6001600160a01b0316836001600160a01b0316857f2f8788117e7eff1d82e926ec794901d17c78024a50270940304540a733656f0d60405160405180910390a460019150506103cb565b60009150506103cb565b600060008051602061173e833981519152610cb18484610732565b15610c8c576000848152602082815260408083206001600160a01b0387168085529252808320805460ff1916905551339287917ff6391f5c32d9c69d2a47ea670b442974b53935d1edc7fd64eb21e047a839171b9190a460019150506103cb565b306001600160a01b037f0000000000000000000000000000000000000000000000000000000000000000161480610d9957507f00000000000000000000000000000000000000000000000000000000000000006001600160a01b0316610d8d6000805160206116fe833981519152546001600160a01b031690565b6001600160a01b031614155b15610db75760405163703e46dd60e11b815260040160405180910390fd5b565b7f189ab7a9244df0848122154315af71fe140f3db0fe014031783b0946b8c9d2e36106ac81610be4565b816001600160a01b03166352d1902d6040518163ffffffff1660e01b8152600401602060405180830381865afa925050508015610e3d575060408051601f3d908101601f19168201909252610e3a918101906116c8565b60015b610e6a57604051634c9c8ce360e01b81526001600160a01b03831660048201526024015b60405180910390fd5b6000805160206116fe8339815191528114610e9b57604051632a87526960e21b815260048101829052602401610e61565b61068c8383610f58565b306001600160a01b037f00000000000000000000000000000000000000000000000000000000000000001614610db75760405163703e46dd60e11b815260040160405180910390fd5b6000807ff0c57e16840df040f15088dc2f81fe391c3923bec73e23a9662efc9c229c6a006103cb565b610db7610fae565b610f298282610732565b6106ac5760405163e2517d3f60e01b81526001600160a01b038216600482015260248101839052604401610e61565b610f6182610fd3565b6040516001600160a01b038316907fbc7cd75a20ee27fd9adebab32041f755214dbc6bffa90cc0225b39da2e5c2d3b90600090a2805115610fa65761068c8282611038565b6106ac6110ae565b610fb66110cd565b610db757604051631afcd79f60e31b815260040160405180910390fd5b806001600160a01b03163b60000361100957604051634c9c8ce360e01b81526001600160a01b0382166004820152602401610e61565b6000805160206116fe83398151915280546001600160a01b0319166001600160a01b0392909216919091179055565b6060600080846001600160a01b03168460405161105591906116e1565b600060405180830381855af49150503d8060008114611090576040519150601f19603f3d011682016040523d82523d6000602084013e611095565b606091505b50915091506110a58583836110e7565b95945050505050565b3415610db75760405163b398979f60e01b815260040160405180910390fd5b60006110d7610eee565b54600160401b900460ff16919050565b6060826110fc576110f782611146565b61113f565b815115801561111357506001600160a01b0384163b155b1561113c57604051639996b31560e01b81526001600160a01b0385166004820152602401610e61565b50805b9392505050565b80511561115557805160208201fd5b60405163d6bda27560e01b815260040160405180910390fd5b60006020828403121561118057600080fd5b81356001600160e01b03198116811461113f57600080fd5b6000602082840312156111aa57600080fd5b5035919050565b80356001600160a01b03811681146111c857600080fd5b919050565b600080604083850312156111e057600080fd5b823591506111f0602084016111b1565b90509250929050565b60005b838110156112145781810151838201526020016111fc565b50506000910152565b600081518084526112358160208601602086016111f9565b601f01601f19169290920160200192915050565b602081526000825160e0602084015261126661010084018261121d565b90506020840151601f1980858403016040860152611284838361121d565b92506040860151915080858403016060860152506112a2828261121d565b91505060608401516080840152608084015160a084015260a084015160c084015260c0840151151560e08401528091505092915050565b634e487b7160e01b600052604160045260246000fd5b600067ffffffffffffffff8084111561130a5761130a6112d9565b604051601f8501601f19908116603f01168101908282118183101715611332576113326112d9565b8160405280935085815286868601111561134b57600080fd5b858560208301376000602087830101525050509392505050565b6000806040838503121561137857600080fd5b611381836111b1565b9150602083013567ffffffffffffffff81111561139d57600080fd5b8301601f810185136113ae57600080fd5b6113bd858235602084016112ef565b9150509250929050565b600080604083850312156113da57600080fd5b50508035926020909101359150565b60208152600061113f602083018461121d565b60006020828403121561140e57600080fd5b61113f826111b1565b600082601f83011261142857600080fd5b61113f838335602085016112ef565b60008060008060008060c0878903121561145057600080fd5b863567ffffffffffffffff8082111561146857600080fd5b6114748a838b01611417565b9750602089013591508082111561148a57600080fd5b6114968a838b01611417565b965060408901359150808211156114ac57600080fd5b506114b989828a01611417565b945050606087013592506080870135915060a087013590509295509295509295565b60e0815260006114ee60e083018a61121d565b8281036020840152611500818a61121d565b90508281036040840152611514818961121d565b9150508560608301528460808301528360a083015282151560c083015298975050505050505050565b600181811c9082168061155157607f821691505b60208210810361157157634e487b7160e01b600052602260045260246000fd5b50919050565b60006001820161159757634e487b7160e01b600052601160045260246000fd5b5060010190565b601f82111561068c576000816000526020600020601f850160051c810160208610156115c75750805b601f850160051c820191505b818110156108b9578281556001016115d3565b815167ffffffffffffffff811115611600576116006112d9565b6116148161160e845461153d565b8461159e565b602080601f83116001811461164957600084156116315750858301515b600019600386901b1c1916600185901b1785556108b9565b600085815260208120601f198616915b8281101561167857888601518255948401946001909101908401611659565b50858210156116965787850151600019600388901b60f8161c191681555b5050505050600190811b01905550565b6040815260006116b9604083018561121d565b90508260208301529392505050565b6000602082840312156116da57600080fd5b5051919050565b600082516116f38184602087016111f9565b919091019291505056fe360894a13ba1a3210667c828492db98dca3e2076cc3735a920a3ca505d382bbcb1fadd3142ab2ad7f1337ea4d97112bcc8337fc11ce5b20cb04ad038adf9981902dd7bc7dec4dceedda775e58dd541e08a116c6c53815c0bd028192f7b626800a26469706673582212205f864bd14b5e2e39babda7c1519ab3ecd19dae96f826a67d187bdc9fd27fc0e064736f6c63430008160033",
  "linkReferences": {},
  "deployedLinkReferences": {}
}