{
  "_format": "hh-sol-artifact-1",
  "contractName": "RealEstateToken",
  "sourceName": "contracts/RealEstateToken.sol",
  "abi": [
    {
      "inputs": [],
      "stateMutability": "nonpayable",
      "type": "constructor"
    },
    {
      "inputs": [],
      "name": "AccessControlBadConfirmation",
      "type": "error"
    },
    {
      "inputs": [
        {
          "internalType": "address",
          "name": "account",
          "type": "address"
        },
        {
          "internalType": "bytes32",
          "name": "neededRole",
          "type": "bytes32"
        }
      ],
      "name": "AccessControlUnauthorizedAccount",
      "type": "error"
    },
    {
      "inputs": [
        {
          "internalType": "address",
          "name": "target",
          "type": "address"
        }
      ],
      "name": "AddressEmptyCode",
      "type": "error"
    },
    {
      "inputs": [
        {
          "internalType": "address",
          "name": "sender",
          "type": "address"
        },
        {
          "internalType": "uint256",
          "name": "balance",
          "type": "uint256"
        },
        {
          "internalType": "uint256",
          "name": "needed",
          "type": "uint256"
        },
        {
          "internalType": "uint256",
          "name": "tokenId",
          "type": "uint256"
        }
      ],
      "name": "ERC1155InsufficientBalance",
      "type": "error"
    },
    {
      "inputs": [
        {
          "internalType": "address",
          "name": "approver",
          "type": "address"
        }
      ],
      "name": "ERC1155InvalidApprover",
      "type": "error"
    },
    {
      "inputs": [
        {
          "internalType": "uint256",
          "name": "idsLength",
          "type": "uint256"
        },
        {
          "internalType": "uint256",
          "name": "valuesLength",
          "type": "uint256"
        }
      ],
      "name": "ERC1155InvalidArrayLength",
      "type": "error"
    },
    {
      "inputs": [
        {
          "internalType": "address",
          "name": "operator",
          "type": "address"
        }
      ],
      "name": "ERC1155InvalidOperator",
      "type": "error"
    },
    {
      "inputs": [
        {
          "internalType": "address",
          "name": "receiver",
          "type": "address"
        }
      ],
      "name": "ERC1155InvalidReceiver",
      "type": "error"
    },
    {
      "inputs": [
        {
          "internalType": "address",
          "name": "sender",
          "type": "address"
        }
      ],
      "name": "ERC1155InvalidSender",
      "type": "error"
    },
    {
      "inputs": [
        {
          "internalType": "address",
          "name": "operator",
          "type": "address"
        },
        {
          "internalType": "address",
          "name": "owner",
          "type": "address"
        }
      ],
      "name": "ERC1155MissingApprovalForAll",
      "type": "error"
    },
    {
      "inputs": [
        {
          "internalType": "address",
          "name": "implementation",
          "type": "address"
        }
      ],
      "name": "ERC1967InvalidImplementation",
      "type": "error"
    },
    {
      "inputs": [],
      "name": "ERC1967NonPayable",
      "type": "error"
    },
    {
      "inputs": [],
      "name": "FailedCall",
      "type": "error"
    },
    {
      "inputs": [],
      "name": "InvalidInitialization",
      "type": "error"
    },
    {
      "inputs": [],
      "name": "NotInitializing",
      "type": "error"
    },
    {
      "inputs": [],
      "name": "UUPSUnauthorizedCallContext",
      "type": "error"
    },
    {
      "inputs": [
        {
          "internalType": "bytes32",
          "name": "slot",
          "type": "bytes32"
        }
      ],
      "name": "UUPSUnsupportedProxiableUUID",
      "type": "error"
    },
    {
      "anonymous": false,
      "inputs": [
        {
          "indexed": true,
          "internalType": "address",
          "name": "account",
          "type": "address"
        },
        {
          "indexed": true,
          "internalType": "address",
          "name": "operator",
          "type": "address"
        },
        {
          "indexed": false,
          "internalType": "bool",
          "name": "approved",
          "type": "bool"
        }
      ],
      "name": "ApprovalForAll",
      "type": "event"
    },
    {
      "anonymous": false,
      "inputs": [
        {
          "indexed": false,
          "internalType": "uint64",
          "name": "version",
          "type": "uint64"
        }
      ],
      "name": "Initialized",
      "type": "event"
    },
    {
      "anonymous": false,
      "inputs": [
        {
          "indexed": true,
          "internalType": "bytes32",
          "name": "role",
          "type": "bytes32"
        },
        {
          "indexed": true,
          "internalType": "bytes32",
          "name": "previousAdminRole",
          "type": "bytes32"
        },
        {
          "indexed": true,
          "internalType": "bytes32",
          "name": "newAdminRole",
          "type": "bytes32"
        }
      ],
      "name": "RoleAdminChanged",
      "type": "event"
    },
    {
      "anonymous": false,
      "inputs": [
        {
          "indexed": true,
          "internalType": "bytes32",
          "name": "role",
          "type": "bytes32"
        },
        {
          "indexed": true,
          "internalType": "address",
          "name": "account",
          "type": "address"
        },
        {
          "indexed": true,
          "internalType": "address",
          "name": "sender",
          "type": "address"
        }
      ],
      "name": "RoleGranted",
      "type": "event"
    },
    {
      "anonymous": false,
      "inputs": [
        {
          "indexed": true,
          "internalType": "bytes32",
          "name": "role",
          "type": "bytes32"
        },
        {
          "indexed": true,
          "internalType": "address",
          "name": "account",
          "type": "address"
        },
        {
          "indexed": true,
          "internalType": "address",
          "name": "sender",
          "type": "address"
        }
      ],
      "name": "RoleRevoked",
      "type": "event"
    },
    {
      "anonymous": false,
      "inputs": [
        {
          "indexed": true,
          "internalType": "address",
          "name": "operator",
          "type": "address"
        },
        {
          "indexed": true,
          "internalType": "address",
          "name": "from",
          "type": "address"
        },
        {
          "indexed": true,
          "internalType": "address",
          "name": "to",
          "type": "address"
        },
        {
          "indexed": false,
          "internalType": "uint256[]",
          "name": "ids",
          "type": "uint256[]"
        },
        {
          "indexed": false,
          "internalType": "uint256[]",
          "name": "values",
          "type": "uint256[]"
        }
      ],
      "name": "TransferBatch",
      "type": "event"
    },
    {
      "anonymous": false,
      "inputs": [
        {
          "indexed": true,
          "internalType": "address",
          "name": "operator",
          "type": "address"
        },
        {
          "indexed": true,
          "internalType": "address",
          "name": "from",
          "type": "address"
        },
        {
          "indexed": true,
          "internalType": "address",
          "name": "to",
          "type": "address"
        },
        {
          "indexed": false,
          "internalType": "uint256",
          "name": "id",
          "type": "uint256"
        },
        {
          "indexed": false,
          "internalType": "uint256",
          "name": "value",
          "type": "uint256"
        }
      ],
      "name": "TransferSingle",
      "type": "event"
    },
    {
      "anonymous": false,
      "inputs": [
        {
          "indexed": false,
          "internalType": "string",
          "name": "value",
          "type": "string"
        },
        {
          "indexed": true,
          "internalType": "uint256",
          "name": "id",
          "type": "uint256"
        }
      ],
      "name": "URI",
      "type": "event"
    },
    {
      "anonymous": false,
      "inputs": [
        {
          "indexed": true,
          "internalType": "address",
          "name": "implementation",
          "type": "address"
        }
      ],
      "name": "Upgraded",
      "type": "event"
    },
    {
      "inputs": [],
      "name": "DEFAULT_ADMIN_ROLE",
      "outputs": [
        {
          "internalType": "bytes32",
          "name": "",
          "type": "bytes32"
        }
      ],
      "stateMutability": "view",
      "type": "function"
    },
    {
      "inputs": [],
      "name": "MINTER_ROLE",
      "outputs": [
        {
          "internalType": "bytes32",
          "name": "",
          "type": "bytes32"
        }
      ],
      "stateMutability": "view",
      "type": "function"
    },
    {
      "inputs": [],
      "name": "UPGRADER_ROLE",
      "outputs": [
        {
          "internalType": "bytes32",
          "name": "",
          "type": "bytes32"
        }
      ],
      "stateMutability": "view",
      "type": "function"
    },
    {
      "inputs": [],
      "name": "UPGRADE_INTERFACE_VERSION",
      "outputs": [
        {
          "internalType": "string",
          "name": "",
          "type": "string"
        }
      ],
      "stateMutability": "view",
      "type": "function"
    },
    {
      "inputs": [],
      "name": "URI_SETTER_ROLE",
      "outputs": [
        {
          "internalType": "bytes32",
          "name": "",
          "type": "bytes32"
        }
      ],
      "stateMutability": "view",
      "type": "function"
    },
    {
      "inputs": [
        {
          "internalType": "address",
          "name": "account",
          "type": "address"
        },
        {
          "internalType": "uint256",
          "name": "id",
          "type": "uint256"
        }
      ],
      "name": "balanceOf",
      "outputs": [
        {
          "internalType": "uint256",
          "name": "",
          "type": "uint256"
        }
      ],
      "stateMutability": "view",
      "type": "function"
    },
    {
      "inputs": [
        {
          "internalType": "address[]",
          "name": "accounts",
          "type": "address[]"
        },
        {
          "internalType": "uint256[]",
          "name": "ids",
          "type": "uint256[]"
        }
      ],
      "name": "balanceOfBatch",
      "outputs": [
        {
          "internalType": "uint256[]",
          "name": "",
          "type": "uint256[]"
        }
      ],
      "stateMutability": "view",
      "type": "function"
    },
    {
      "inputs": [],
      "name": "complianceRegistry",
      "outputs": [
        {
          "internalType": "contract ComplianceRegistry",
          "name": "",
          "type": "address"
        }
      ],
      "stateMutability": "view",
      "type": "function"
    },
    {
      "inputs": [
        {
          "internalType": "uint256",
          "name": "id",
          "type": "uint256"
        }
      ],
      "name": "exists",
      "outputs": [
        {
          "internalType": "bool",
          "name": "",
          "type": "bool"
        }
      ],
      "stateMutability": "view",
      "type": "function"
    },
    {
      "inputs": [
        {
          "internalType": "bytes32",
          "name": "role",
          "type": "bytes32"
        }
      ],
      "name": "getRoleAdmin",
      "outputs": [
        {
          "internalType": "bytes32",
          "name": "",
          "type": "bytes32"
        }
      ],
      "stateMutability": "view",
      "type": "function"
    },
    {
      "inputs": [
        {
          "internalType": "bytes32",
          "name": "role",
          "type": "bytes32"
        },
        {
          "internalType": "address",
          "name": "account",
          "type": "address"
        }
      ],
      "name": "grantRole",
      "outputs": [],
      "stateMutability": "nonpayable",
      "type": "function"
    },
    {
      "inputs": [
        {
          "internalType": "bytes32",
          "name": "role",
          "type": "bytes32"
        },
        {
          "internalType": "address",
          "name": "account",
          "type": "address"
        }
      ],
      "name": "hasRole",
      "outputs": [
        {
          "internalType": "bool",
          "name": "",
          "type": "bool"
        }
      ],
      "stateMutability": "view",
      "type": "function"
    },
    {
      "inputs": [
        {
          "internalType": "address",
          "name": "defaultAdmin",
          "type": "address"
        },
        {
          "internalType": "address",
          "name": "_complianceRegistry",
          "type": "address"
        }
      ],
      "name": "initialize",
      "outputs": [],
      "stateMutability": "nonpayable",
      "type": "function"
    },
    {
      "inputs": [
        {
          "internalType": "address",
          "name": "account",
          "type": "address"
        },
        {
          "internalType": "address",
          "name": "operator",
          "type": "address"
        }
      ],
      "name": "isApprovedForAll",
      "outputs": [
        {
          "internalType": "bool",
          "name": "",
          "type": "bool"
        }
      ],
      "stateMutability": "view",
      "type": "function"
    },
    {
      "inputs": [
        {
          "internalType": "address",
          "name": "account",
          "type": "address"
        },
        {
          "internalType": "uint256",
          "name": "id",
          "type": "uint256"
        },
        {
          "internalType": "uint256",
          "name": "amount",
          "type": "uint256"
        },
        {
          "internalType": "bytes",
          "name": "data",
          "type": "bytes"
        }
      ],
      "name": "mint",
      "outputs": [],
      "stateMutability": "nonpayable",
      "type": "function"
    },
    {
      "inputs": [
        {
          "internalType": "address",
          "name": "to",
          "type": "address"
        },
        {
          "internalType": "uint256[]",
          "name": "ids",
          "type": "uint256[]"
        },
        {
          "internalType": "uint256[]",
          "name": "amounts",
          "type": "uint256[]"
        },
        {
          "internalType": "bytes",
          "name": "data",
          "type": "bytes"
        }
      ],
      "name": "mintBatch",
      "outputs": [],
      "stateMutability": "nonpayable",
      "type": "function"
    },
    {
      "inputs": [],
      "name": "proxiableUUID",
      "outputs": [
        {
          "internalType": "bytes32",
          "name": "",
          "type": "bytes32"
        }
      ],
      "stateMutability": "view",
      "type": "function"
    },
    {
      "inputs": [
        {
          "internalType": "bytes32",
          "name": "role",
          "type": "bytes32"
        },
        {
          "internalType": "address",
          "name": "callerConfirmation",
          "type": "address"
        }
      ],
      "name": "renounceRole",
      "outputs": [],
      "stateMutability": "nonpayable",
      "type": "function"
    },
    {
      "inputs": [
        {
          "internalType": "bytes32",
          "name": "role",
          "type": "bytes32"
        },
        {
          "internalType": "address",
          "name": "account",
          "type": "address"
        }
      ],
      "name": "revokeRole",
      "outputs": [],
      "stateMutability": "nonpayable",
      "type": "function"
    },
    {
      "inputs": [
        {
          "internalType": "address",
          "name": "from",
          "type": "address"
        },
        {
          "internalType": "address",
          "name": "to",
          "type": "address"
        },
        {
          "internalType": "uint256[]",
          "name": "ids",
          "type": "uint256[]"
        },
        {
          "internalType": "uint256[]",
          "name": "values",
          "type": "uint256[]"
        },
        {
          "internalType": "bytes",
          "name": "data",
          "type": "bytes"
        }
      ],
      "name": "safeBatchTransferFrom",
      "outputs": [],
      "stateMutability": "nonpayable",
      "type": "function"
    },
    {
      "inputs": [
        {
          "internalType": "address",
          "name": "from",
          "type": "address"
        },
        {
          "internalType": "address",
          "name": "to",
          "type": "address"
        },
        {
          "internalType": "uint256",
          "name": "id",
          "type": "uint256"
        },
        {
          "internalType": "uint256",
          "name": "value",
          "type": "uint256"
        },
        {
          "internalType": "bytes",
          "name": "data",
          "type": "bytes"
        }
      ],
      "name": "safeTransferFrom",
      "outputs": [],
      "stateMutability": "nonpayable",
      "type": "function"
    },
    {
      "inputs": [
        {
          "internalType": "address",
          "name": "operator",
          "type": "address"
        },
        {
          "internalType": "bool",
          "name": "approved",
          "type": "bool"
        }
      ],
      "name": "setApprovalForAll",
      "outputs": [],
      "stateMutability": "nonpayable",
      "type": "function"
    },
    {
      "inputs": [
        {
          "internalType": "string",
          "name": "newuri",
          "type": "string"
        }
      ],
      "name": "setURI",
      "outputs": [],
      "stateMutability": "nonpayable",
      "type": "function"
    },
    {
      "inputs": [
        {
          "internalType": "bytes4",
          "name": "interfaceId",
          "type": "bytes4"
        }
      ],
      "name": "supportsInterface",
      "outputs": [
        {
          "internalType": "bool",
          "name": "",
          "type": "bool"
        }
      ],
      "stateMutability": "view",
      "type": "function"
    },
    {
      "inputs": [],
      "name": "totalSupply",
      "outputs": [
        {
          "internalType": "uint256",
          "name": "",
          "type": "uint256"
        }
      ],
      "stateMutability": "view",
      "type": "function"
    },
    {
      "inputs": [
        {
          "internalType": "uint256",
          "name": "id",
          "type": "uint256"
        }
      ],
      "name": "totalSupply",
      "outputs": [
        {
          "internalType": "uint256",
          "name": "",
          "type": "uint256"
        }
      ],
      "stateMutability": "view",
      "type": "function"
    },
    {
      "inputs": [
        {
          "internalType": "address",
          "name": "",
          "type": "address"
        }
      ],
      "name": "totalUserBalance",
      "outputs": [
        {
          "internalType": "uint256",
          "name": "",
          "type": "uint256"
        }
      ],
      "stateMutability": "view",
      "type": "function"
    },
    {
      "inputs": [
        {
          "internalType": "address",
          "name": "newImplementation",
          "type": "address"
        },
        {
          "internalType": "bytes",
          "name": "data",
          "type": "bytes"
        }
      ],
      "name": "upgradeToAndCall",
      "outputs": [],
      "stateMutability": "payable",
      "type": "function"
    },
    {
      "inputs": [
        {
          "internalType": "uint256",
          "name": "",
          "type": "uint256"
        }
      ],
      "name": "uri",
      "outputs": [
        {
          "internalType": "string",
          "name": "",
          "type": "string"
        }
      ],
      "stateMutability": "view",
      "type": "function"
    }
  ],
  "bytecode": "0x60a0604052306080523480156200001557600080fd5b506200002062000026565b620000da565b7ff0c57e16840df040f15088dc2f81fe391c3923bec73e23a9662efc9c229c6a00805468010000000000000000900460ff1615620000775760405163f92ee8a960e01b815260040160405180910390fd5b80546001600160401b0390811614620000d75780546001600160401b0319166001600160401b0390811782556040519081527fc7f505b2f371ae2175ee4913f4499e1f2633a7b5936321eed1cdaeb6115181d29060200160405180910390a15b50565b60805161282862000104600039600081816110180152818161104101526111a401526128286000f3fe6080604052600436106101c15760003560e01c80634f558e79116100f7578063ad3cb1cc11610095578063d547741f11610064578063d547741f146105bc578063e985e9c5146105dc578063f242432a146105fc578063f72c0d8b1461061c57600080fd5b8063ad3cb1cc146104e5578063bd85b03914610516578063cac89c5c14610562578063d53913931461059a57600080fd5b80637f345710116100d15780637f3457101461045c57806391d1485414610490578063a217fddf146104b0578063a22cb465146104c557600080fd5b80634f558e79146103d957806352d1902d14610427578063731133e91461043c57600080fd5b8063248a9ca31161016457806336568abe1161013e57806336568abe14610359578063485cc955146103795780634e1273f4146103995780634f1ef286146103c657600080fd5b8063248a9ca3146102f95780632eb2c2d6146103195780632f2ff15d1461033957600080fd5b80630e89341c116101a05780630e89341c1461024b57806318160ddd146102785780631f7fdffa146102ac57806320cb5aa6146102cc57600080fd5b8062fdd58e146101c657806301ffc9a7146101f957806302fe530514610229575b600080fd5b3480156101d257600080fd5b506101e66101e1366004611df9565b610650565b6040519081526020015b60405180910390f35b34801561020557600080fd5b50610219610214366004611e39565b610687565b60405190151581526020016101f0565b34801561023557600080fd5b50610249610244366004611ef3565b610692565b005b34801561025757600080fd5b5061026b610266366004611f43565b6106c9565b6040516101f09190611fac565b34801561028457600080fd5b507f4a593662ee04d27b6a00ebb31be7fe0c102c2ade82a7c5d764f2df05dc4e2801546101e6565b3480156102b857600080fd5b506102496102c7366004612071565b61078e565b3480156102d857600080fd5b506101e66102e7366004612109565b60016020526000908152604090205481565b34801561030557600080fd5b506101e6610314366004611f43565b61084c565b34801561032557600080fd5b50610249610334366004612124565b61086e565b34801561034557600080fd5b506102496103543660046121cd565b6108d5565b34801561036557600080fd5b506102496103743660046121cd565b6108f7565b34801561038557600080fd5b506102496103943660046121f9565b61092f565b3480156103a557600080fd5b506103b96103b4366004612223565b610ae7565b6040516101f0919061231e565b6102496103d4366004612331565b610bb3565b3480156103e557600080fd5b506102196103f4366004611f43565b60009081527f4a593662ee04d27b6a00ebb31be7fe0c102c2ade82a7c5d764f2df05dc4e28006020526040902054151590565b34801561043357600080fd5b506101e6610bce565b34801561044857600080fd5b50610249610457366004612374565b610beb565b34801561046857600080fd5b506101e67f7804d923f43a17d325d77e781528e0793b2edd9890ab45fc64efd7b4b427744c81565b34801561049c57600080fd5b506102196104ab3660046121cd565b610c99565b3480156104bc57600080fd5b506101e6600081565b3480156104d157600080fd5b506102496104e03660046123d6565b610cd1565b3480156104f157600080fd5b5061026b604051806040016040528060058152602001640352e302e360dc1b81525081565b34801561052257600080fd5b506101e6610531366004611f43565b60009081527f4a593662ee04d27b6a00ebb31be7fe0c102c2ade82a7c5d764f2df05dc4e2800602052604090205490565b34801561056e57600080fd5b50600054610582906001600160a01b031681565b6040516001600160a01b0390911681526020016101f0565b3480156105a657600080fd5b506101e66000805160206127b383398151915281565b3480156105c857600080fd5b506102496105d73660046121cd565b610cdc565b3480156105e857600080fd5b506102196105f73660046121f9565b610cf8565b34801561060857600080fd5b5061024961061736600461240d565b610d45565b34801561062857600080fd5b506101e67f189ab7a9244df0848122154315af71fe140f3db0fe014031783b0946b8c9d2e381565b6000818152600080516020612793833981519152602090815260408083206001600160a01b03861684529091529020545b92915050565b600061068182610da4565b7f7804d923f43a17d325d77e781528e0793b2edd9890ab45fc64efd7b4b427744c6106bc81610dc9565b6106c582610dd6565b5050565b7f88be536d5240c274a3b1d3a1be54482fd9caa294f08c62a7cde569f49a3c450280546060916000805160206127938339815191529161070890612471565b80601f016020809104026020016040519081016040528092919081815260200182805461073490612471565b80156107815780601f1061075657610100808354040283529160200191610781565b820191906000526020600020905b81548152906001019060200180831161076457829003601f168201915b5050505050915050919050565b6000805160206127b38339815191526107a681610dc9565b600054604051632c289dcf60e01b81526001600160a01b03878116600483015290911690632c289dcf90602401602060405180830381865afa1580156107f0573d6000803e3d6000fd5b505050506040513d601f19601f8201168201806040525081019061081491906124ab565b6108395760405162461bcd60e51b8152600401610830906124c8565b60405180910390fd5b61084585858585610e10565b5050505050565b60009081526000805160206127d3833981519152602052604090206001015490565b336001600160a01b038616811480159061088f575061088d8682610cf8565b155b156108c05760405163711bec9160e11b81526001600160a01b03808316600483015287166024820152604401610830565b6108cd8686868686610e48565b505050505050565b6108de8261084c565b6108e781610dc9565b6108f18383610ea8565b50505050565b6001600160a01b03811633146109205760405163334bd91960e11b815260040160405180910390fd5b61092a8282610f4d565b505050565b6000610939610fc9565b805490915060ff600160401b82041615906001600160401b03166000811580156109605750825b90506000826001600160401b0316600114801561097c5750303b155b90508115801561098a575080155b156109a85760405163f92ee8a960e01b815260040160405180910390fd5b845467ffffffffffffffff1916600117855583156109d257845460ff60401b1916600160401b1785555b6109ea60405180602001604052806000815250610ff2565b6109f2611003565b6109fa611003565b610a02611003565b610a0d600088610ea8565b50610a266000805160206127b383398151915288610ea8565b50610a517f189ab7a9244df0848122154315af71fe140f3db0fe014031783b0946b8c9d2e388610ea8565b50610a7c7f7804d923f43a17d325d77e781528e0793b2edd9890ab45fc64efd7b4b427744c88610ea8565b50600080546001600160a01b0319166001600160a01b0388161790558315610ade57845460ff60401b19168555604051600181527fc7f505b2f371ae2175ee4913f4499e1f2633a7b5936321eed1cdaeb6115181d29060200160405180910390a15b50505050505050565b60608151835114610b185781518351604051635b05999160e01b815260048101929092526024820152604401610830565b600083516001600160401b03811115610b3357610b33611e56565b604051908082528060200260200182016040528015610b5c578160200160208202803683370190505b50905060005b8451811015610bab57602080820286010151610b8690602080840287010151610650565b828281518110610b9857610b986124ff565b6020908102919091010152600101610b62565b509392505050565b610bbb61100d565b610bc4826110b2565b6106c582826110dc565b6000610bd8611199565b5060008051602061277383398151915290565b6000805160206127b3833981519152610c0381610dc9565b600054604051632c289dcf60e01b81526001600160a01b03878116600483015290911690632c289dcf90602401602060405180830381865afa158015610c4d573d6000803e3d6000fd5b505050506040513d601f19601f82011682018060405250810190610c7191906124ab565b610c8d5760405162461bcd60e51b8152600401610830906124c8565b610845858585856111e2565b60009182526000805160206127d3833981519152602090815260408084206001600160a01b0393909316845291905290205460ff1690565b6106c533838361123f565b610ce58261084c565b610cee81610dc9565b6108f18383610f4d565b6001600160a01b0391821660009081527f88be536d5240c274a3b1d3a1be54482fd9caa294f08c62a7cde569f49a3c45016020908152604080832093909416825291909152205460ff1690565b336001600160a01b0386168114801590610d665750610d648682610cf8565b155b15610d975760405163711bec9160e11b81526001600160a01b03808316600483015287166024820152604401610830565b6108cd86868686866112e7565b60006001600160e01b03198216637965db0b60e01b148061068157506106818261136c565b610dd381336113bc565b50565b6000805160206127938339815191527f88be536d5240c274a3b1d3a1be54482fd9caa294f08c62a7cde569f49a3c450261092a838261255d565b6001600160a01b038416610e3a57604051632bfa23e760e11b815260006004820152602401610830565b6108f16000858585856113f5565b6001600160a01b038416610e7257604051632bfa23e760e11b815260006004820152602401610830565b6001600160a01b038516610e9b57604051626a0d4560e21b815260006004820152602401610830565b61084585858585856113f5565b60006000805160206127d3833981519152610ec38484610c99565b610f43576000848152602082815260408083206001600160a01b03871684529091529020805460ff19166001179055610ef93390565b6001600160a01b0316836001600160a01b0316857f2f8788117e7eff1d82e926ec794901d17c78024a50270940304540a733656f0d60405160405180910390a46001915050610681565b6000915050610681565b60006000805160206127d3833981519152610f688484610c99565b15610f43576000848152602082815260408083206001600160a01b0387168085529252808320805460ff1916905551339287917ff6391f5c32d9c69d2a47ea670b442974b53935d1edc7fd64eb21e047a839171b9190a46001915050610681565b6000807ff0c57e16840df040f15088dc2f81fe391c3923bec73e23a9662efc9c229c6a00610681565b610ffa611448565b610dd38161146d565b61100b611448565b565b306001600160a01b037f000000000000000000000000000000000000000000000000000000000000000016148061109457507f00000000000000000000000000000000000000000000000000000000000000006001600160a01b0316611088600080516020612773833981519152546001600160a01b031690565b6001600160a01b031614155b1561100b5760405163703e46dd60e11b815260040160405180910390fd5b7f189ab7a9244df0848122154315af71fe140f3db0fe014031783b0946b8c9d2e36106c581610dc9565b816001600160a01b03166352d1902d6040518163ffffffff1660e01b8152600401602060405180830381865afa925050508015611136575060408051601f3d908101601f191682019092526111339181019061261c565b60015b61115e57604051634c9c8ce360e01b81526001600160a01b0383166004820152602401610830565b600080516020612773833981519152811461118f57604051632a87526960e21b815260048101829052602401610830565b61092a838361147e565b306001600160a01b037f0000000000000000000000000000000000000000000000000000000000000000161461100b5760405163703e46dd60e11b815260040160405180910390fd5b6001600160a01b03841661120c57604051632bfa23e760e11b815260006004820152602401610830565b604080516001808252602082018690528183019081526060820185905260808201909252906108cd6000878484876113f5565b6000805160206127938339815191526001600160a01b0383166112775760405162ced3e160e81b815260006004820152602401610830565b6001600160a01b038481166000818152600184016020908152604080832094881680845294825291829020805460ff191687151590811790915591519182527f17307eab39ab6107e8899845ad3d59bd9653f200f220920489ca2b5937696c31910160405180910390a350505050565b6001600160a01b03841661131157604051632bfa23e760e11b815260006004820152602401610830565b6001600160a01b03851661133a57604051626a0d4560e21b815260006004820152602401610830565b60408051600180825260208201869052818301908152606082018590526080820190925290610ade87878484876113f5565b60006001600160e01b03198216636cdb3d1360e11b148061139d57506001600160e01b031982166303a24d0760e21b145b8061068157506301ffc9a760e01b6001600160e01b0319831614610681565b6113c68282610c99565b6106c55760405163e2517d3f60e01b81526001600160a01b038216600482015260248101839052604401610830565b611401858585856114d4565b6001600160a01b03841615610845578251339060010361143a5760208481015190840151611433838989858589611700565b50506108cd565b6108cd818787878787611824565b61145061190d565b61100b57604051631afcd79f60e31b815260040160405180910390fd5b611475611448565b610dd381610dd6565b61148782611927565b6040516001600160a01b038316907fbc7cd75a20ee27fd9adebab32041f755214dbc6bffa90cc0225b39da2e5c2d3b90600090a28051156114cc5761092a828261198c565b6106c5611a02565b6001600160a01b038416158015906114f457506001600160a01b03831615155b1561163d57600054604051632c289dcf60e01b81526001600160a01b03858116600483015290911690632c289dcf90602401602060405180830381865afa158015611543573d6000803e3d6000fd5b505050506040513d601f19601f8201168201806040525081019061156791906124ab565b6115835760405162461bcd60e51b8152600401610830906124c8565b600054604051632c289dcf60e01b81526001600160a01b03868116600483015290911690632c289dcf90602401602060405180830381865afa1580156115cd573d6000803e3d6000fd5b505050506040513d601f19601f820116820180604052508101906115f191906124ab565b61163d5760405162461bcd60e51b815260206004820152601760248201527f53656e646572206e6f74204b59432076657269666965640000000000000000006044820152606401610830565b6000805b82518110156116795782818151811061165c5761165c6124ff565b60200260200101518261166f919061264b565b9150600101611641565b506001600160a01b038516156116b7576001600160a01b038516600090815260016020526040812080548392906116b190849061265e565b90915550505b6001600160a01b038416156116f4576001600160a01b038416600090815260016020526040812080548392906116ee90849061264b565b90915550505b61084585858585611a21565b6001600160a01b0384163b156108cd5760405163f23a6e6160e01b81526001600160a01b0385169063f23a6e61906117449089908990889088908890600401612671565b6020604051808303816000875af192505050801561177f575060408051601f3d908101601f1916820190925261177c918101906126b6565b60015b6117e8573d8080156117ad576040519150601f19603f3d011682016040523d82523d6000602084013e6117b2565b606091505b5080516000036117e057604051632bfa23e760e11b81526001600160a01b0386166004820152602401610830565b805160208201fd5b6001600160e01b0319811663f23a6e6160e01b14610ade57604051632bfa23e760e11b81526001600160a01b0386166004820152602401610830565b6001600160a01b0384163b156108cd5760405163bc197c8160e01b81526001600160a01b0385169063bc197c819061186890899089908890889088906004016126d3565b6020604051808303816000875af19250505080156118a3575060408051601f3d908101601f191682019092526118a0918101906126b6565b60015b6118d1573d8080156117ad576040519150601f19603f3d011682016040523d82523d6000602084013e6117b2565b6001600160e01b0319811663bc197c8160e01b14610ade57604051632bfa23e760e11b81526001600160a01b0386166004820152602401610830565b6000611917610fc9565b54600160401b900460ff16919050565b806001600160a01b03163b60000361195d57604051634c9c8ce360e01b81526001600160a01b0382166004820152602401610830565b60008051602061277383398151915280546001600160a01b0319166001600160a01b0392909216919091179055565b6060600080846001600160a01b0316846040516119a99190612731565b600060405180830381855af49150503d80600081146119e4576040519150601f19603f3d011682016040523d82523d6000602084013e6119e9565b606091505b50915091506119f9858383611b31565b95945050505050565b341561100b5760405163b398979f60e01b815260040160405180910390fd5b7f4a593662ee04d27b6a00ebb31be7fe0c102c2ade82a7c5d764f2df05dc4e2800611a4e85858585611b90565b6001600160a01b038516611acf576000805b8451811015611ab357602081810285810182015190870182015160009081529185905260408220805491928392611a9890849061264b565b90915550611aa89050818461264b565b925050600101611a60565b5080826001016000828254611ac8919061264b565b9091555050505b6001600160a01b038416610845576000805b8451811015611b1d5760208181028581018201519087018201516000908152918590526040909120805482900390559190910190600101611ae1565b506001820180549190910390555050505050565b606082611b4657611b4182611db5565b611b89565b8151158015611b5d57506001600160a01b0384163b155b15611b8657604051639996b31560e01b81526001600160a01b0385166004820152602401610830565b50805b9392505050565b805182516000805160206127938339815191529114611bcf5782518251604051635b05999160e01b815260048101929092526024820152604401610830565b3360005b8451811015611cd5576020818102868101820151908601909101516001600160a01b03891615611c86576000828152602086815260408083206001600160a01b038d16845290915290205481811015611c5f576040516303dee4c560e01b81526001600160a01b038b166004820152602481018290526044810183905260648101849052608401610830565b6000838152602087815260408083206001600160a01b038e16845290915290209082900390555b6001600160a01b03881615611ccb576000828152602086815260408083206001600160a01b038c16845290915281208054839290611cc590849061264b565b90915550505b5050600101611bd3565b508351600103611d565760208401516000906020850151909150866001600160a01b0316886001600160a01b0316846001600160a01b03167fc3d58168c5ae7397731d063d5bbf3d657854427343f4c083240f7aacaa2d0f628585604051611d47929190918252602082015260400190565b60405180910390a450506108cd565b846001600160a01b0316866001600160a01b0316826001600160a01b03167f4a39dc06d4c0dbc64b70af90fd698a233a518aa5d07e595d983b8c0526c8f7fb8787604051611da592919061274d565b60405180910390a4505050505050565b805115611dc457805160208201fd5b60405163d6bda27560e01b815260040160405180910390fd5b80356001600160a01b0381168114611df457600080fd5b919050565b60008060408385031215611e0c57600080fd5b611e1583611ddd565b946020939093013593505050565b6001600160e01b031981168114610dd357600080fd5b600060208284031215611e4b57600080fd5b8135611b8981611e23565b634e487b7160e01b600052604160045260246000fd5b604051601f8201601f191681016001600160401b0381118282101715611e9457611e94611e56565b604052919050565b60006001600160401b03831115611eb557611eb5611e56565b611ec8601f8401601f1916602001611e6c565b9050828152838383011115611edc57600080fd5b828260208301376000602084830101529392505050565b600060208284031215611f0557600080fd5b81356001600160401b03811115611f1b57600080fd5b8201601f81018413611f2c57600080fd5b611f3b84823560208401611e9c565b949350505050565b600060208284031215611f5557600080fd5b5035919050565b60005b83811015611f77578181015183820152602001611f5f565b50506000910152565b60008151808452611f98816020860160208601611f5c565b601f01601f19169290920160200192915050565b602081526000611b896020830184611f80565b60006001600160401b03821115611fd857611fd8611e56565b5060051b60200190565b600082601f830112611ff357600080fd5b8135602061200861200383611fbf565b611e6c565b8083825260208201915060208460051b87010193508684111561202a57600080fd5b602086015b84811015612046578035835291830191830161202f565b509695505050505050565b600082601f83011261206257600080fd5b611b8983833560208501611e9c565b6000806000806080858703121561208757600080fd5b61209085611ddd565b935060208501356001600160401b03808211156120ac57600080fd5b6120b888838901611fe2565b945060408701359150808211156120ce57600080fd5b6120da88838901611fe2565b935060608701359150808211156120f057600080fd5b506120fd87828801612051565b91505092959194509250565b60006020828403121561211b57600080fd5b611b8982611ddd565b600080600080600060a0868803121561213c57600080fd5b61214586611ddd565b945061215360208701611ddd565b935060408601356001600160401b038082111561216f57600080fd5b61217b89838a01611fe2565b9450606088013591508082111561219157600080fd5b61219d89838a01611fe2565b935060808801359150808211156121b357600080fd5b506121c088828901612051565b9150509295509295909350565b600080604083850312156121e057600080fd5b823591506121f060208401611ddd565b90509250929050565b6000806040838503121561220c57600080fd5b61221583611ddd565b91506121f060208401611ddd565b6000806040838503121561223657600080fd5b82356001600160401b038082111561224d57600080fd5b818501915085601f83011261226157600080fd5b8135602061227161200383611fbf565b82815260059290921b8401810191818101908984111561229057600080fd5b948201945b838610156122b5576122a686611ddd565b82529482019490820190612295565b965050860135925050808211156122cb57600080fd5b506122d885828601611fe2565b9150509250929050565b60008151808452602080850194506020840160005b83811015612313578151875295820195908201906001016122f7565b509495945050505050565b602081526000611b8960208301846122e2565b6000806040838503121561234457600080fd5b61234d83611ddd565b915060208301356001600160401b0381111561236857600080fd5b6122d885828601612051565b6000806000806080858703121561238a57600080fd5b61239385611ddd565b9350602085013592506040850135915060608501356001600160401b038111156123bc57600080fd5b6120fd87828801612051565b8015158114610dd357600080fd5b600080604083850312156123e957600080fd5b6123f283611ddd565b91506020830135612402816123c8565b809150509250929050565b600080600080600060a0868803121561242557600080fd5b61242e86611ddd565b945061243c60208701611ddd565b9350604086013592506060860135915060808601356001600160401b0381111561246557600080fd5b6121c088828901612051565b600181811c9082168061248557607f821691505b6020821081036124a557634e487b7160e01b600052602260045260246000fd5b50919050565b6000602082840312156124bd57600080fd5b8151611b89816123c8565b6020808252601a908201527f526563697069656e74206e6f74204b5943207665726966696564000000000000604082015260600190565b634e487b7160e01b600052603260045260246000fd5b601f82111561092a576000816000526020600020601f850160051c8101602086101561253e5750805b601f850160051c820191505b818110156108cd5782815560010161254a565b81516001600160401b0381111561257657612576611e56565b61258a816125848454612471565b84612515565b602080601f8311600181146125bf57600084156125a75750858301515b600019600386901b1c1916600185901b1785556108cd565b600085815260208120601f198616915b828110156125ee578886015182559484019460019091019084016125cf565b508582101561260c5787850151600019600388901b60f8161c191681555b5050505050600190811b01905550565b60006020828403121561262e57600080fd5b5051919050565b634e487b7160e01b600052601160045260246000fd5b8082018082111561068157610681612635565b8181038181111561068157610681612635565b6001600160a01b03868116825285166020820152604081018490526060810183905260a0608082018190526000906126ab90830184611f80565b979650505050505050565b6000602082840312156126c857600080fd5b8151611b8981611e23565b6001600160a01b0386811682528516602082015260a0604082018190526000906126ff908301866122e2565b828103606084015261271181866122e2565b905082810360808401526127258185611f80565b98975050505050505050565b60008251612743818460208701611f5c565b9190910192915050565b60408152600061276060408301856122e2565b82810360208401526119f981856122e256fe360894a13ba1a3210667c828492db98dca3e2076cc3735a920a3ca505d382bbc88be536d5240c274a3b1d3a1be54482fd9caa294f08c62a7cde569f49a3c45009f2df0fed2c77648de5860a4cc508cd0818c85b8b8a1ab4ceeef8d981c8956a602dd7bc7dec4dceedda775e58dd541e08a116c6c53815c0bd028192f7b626800a26469706673582212206743b1d26f94463706d1b40c00f50e4de1dbef52fea3523efb659d8643e378db64736f6c63430008160033",
  "linkReferences": {},
  "deployedLinkReferences": {}
}